{
  "contractName": "KhidirSwapRouter",
  "abi": [
    {
      "inputs": [
        {
          "internalType": "address",
          "name": "_factory",
          "type": "address"
        },
        {
          "internalType": "address",
          "name": "_WBNB",
          "type": "address"
        }
      ],
      "stateMutability": "nonpayable",
      "type": "constructor"
    },
    {
      "inputs": [],
      "name": "WBNB",
      "outputs": [
        {
          "internalType": "address",
          "name": "",
          "type": "address"
        }
      ],
      "stateMutability": "view",
      "type": "function",
      "constant": true
    },
    {
      "inputs": [],
      "name": "factory",
      "outputs": [
        {
          "internalType": "address",
          "name": "",
          "type": "address"
        }
      ],
      "stateMutability": "view",
      "type": "function",
      "constant": true
    },
    {
      "stateMutability": "payable",
      "type": "receive",
      "payable": true
    },
    {
      "inputs": [
        {
          "internalType": "address",
          "name": "tokenA",
          "type": "address"
        },
        {
          "internalType": "address",
          "name": "tokenB",
          "type": "address"
        },
        {
          "internalType": "uint256",
          "name": "amountADesired",
          "type": "uint256"
        },
        {
          "internalType": "uint256",
          "name": "amountBDesired",
          "type": "uint256"
        },
        {
          "internalType": "uint256",
          "name": "amountAMin",
          "type": "uint256"
        },
        {
          "internalType": "uint256",
          "name": "amountBMin",
          "type": "uint256"
        },
        {
          "internalType": "address",
          "name": "to",
          "type": "address"
        },
        {
          "internalType": "uint256",
          "name": "deadline",
          "type": "uint256"
        }
      ],
      "name": "addLiquidity",
      "outputs": [
        {
          "internalType": "uint256",
          "name": "amountA",
          "type": "uint256"
        },
        {
          "internalType": "uint256",
          "name": "amountB",
          "type": "uint256"
        },
        {
          "internalType": "uint256",
          "name": "liquidity",
          "type": "uint256"
        }
      ],
      "stateMutability": "nonpayable",
      "type": "function"
    },
    {
      "inputs": [
        {
          "internalType": "address",
          "name": "token",
          "type": "address"
        },
        {
          "internalType": "uint256",
          "name": "amountTokenDesired",
          "type": "uint256"
        },
        {
          "internalType": "uint256",
          "name": "amountTokenMin",
          "type": "uint256"
        },
        {
          "internalType": "uint256",
          "name": "amountBNBMin",
          "type": "uint256"
        },
        {
          "internalType": "address",
          "name": "to",
          "type": "address"
        },
        {
          "internalType": "uint256",
          "name": "deadline",
          "type": "uint256"
        }
      ],
      "name": "addLiquidityBNB",
      "outputs": [
        {
          "internalType": "uint256",
          "name": "amountToken",
          "type": "uint256"
        },
        {
          "internalType": "uint256",
          "name": "amountBNB",
          "type": "uint256"
        },
        {
          "internalType": "uint256",
          "name": "liquidity",
          "type": "uint256"
        }
      ],
      "stateMutability": "payable",
      "type": "function",
      "payable": true
    },
    {
      "inputs": [
        {
          "internalType": "address",
          "name": "tokenA",
          "type": "address"
        },
        {
          "internalType": "address",
          "name": "tokenB",
          "type": "address"
        },
        {
          "internalType": "uint256",
          "name": "liquidity",
          "type": "uint256"
        },
        {
          "internalType": "uint256",
          "name": "amountAMin",
          "type": "uint256"
        },
        {
          "internalType": "uint256",
          "name": "amountBMin",
          "type": "uint256"
        },
        {
          "internalType": "address",
          "name": "to",
          "type": "address"
        },
        {
          "internalType": "uint256",
          "name": "deadline",
          "type": "uint256"
        }
      ],
      "name": "removeLiquidity",
      "outputs": [
        {
          "internalType": "uint256",
          "name": "amountA",
          "type": "uint256"
        },
        {
          "internalType": "uint256",
          "name": "amountB",
          "type": "uint256"
        }
      ],
      "stateMutability": "nonpayable",
      "type": "function"
    },
    {
      "inputs": [
        {
          "internalType": "address",
          "name": "token",
          "type": "address"
        },
        {
          "internalType": "uint256",
          "name": "liquidity",
          "type": "uint256"
        },
        {
          "internalType": "uint256",
          "name": "amountTokenMin",
          "type": "uint256"
        },
        {
          "internalType": "uint256",
          "name": "amountBNBMin",
          "type": "uint256"
        },
        {
          "internalType": "address",
          "name": "to",
          "type": "address"
        },
        {
          "internalType": "uint256",
          "name": "deadline",
          "type": "uint256"
        }
      ],
      "name": "removeLiquidityBNB",
      "outputs": [
        {
          "internalType": "uint256",
          "name": "amountToken",
          "type": "uint256"
        },
        {
          "internalType": "uint256",
          "name": "amountBNB",
          "type": "uint256"
        }
      ],
      "stateMutability": "nonpayable",
      "type": "function"
    },
    {
      "inputs": [
        {
          "internalType": "address",
          "name": "tokenA",
          "type": "address"
        },
        {
          "internalType": "address",
          "name": "tokenB",
          "type": "address"
        },
        {
          "internalType": "uint256",
          "name": "liquidity",
          "type": "uint256"
        },
        {
          "internalType": "uint256",
          "name": "amountAMin",
          "type": "uint256"
        },
        {
          "internalType": "uint256",
          "name": "amountBMin",
          "type": "uint256"
        },
        {
          "internalType": "address",
          "name": "to",
          "type": "address"
        },
        {
          "internalType": "uint256",
          "name": "deadline",
          "type": "uint256"
        },
        {
          "internalType": "bool",
          "name": "approveMax",
          "type": "bool"
        },
        {
          "internalType": "uint8",
          "name": "v",
          "type": "uint8"
        },
        {
          "internalType": "bytes32",
          "name": "r",
          "type": "bytes32"
        },
        {
          "internalType": "bytes32",
          "name": "s",
          "type": "bytes32"
        }
      ],
      "name": "removeLiquidityWithPermit",
      "outputs": [
        {
          "internalType": "uint256",
          "name": "amountA",
          "type": "uint256"
        },
        {
          "internalType": "uint256",
          "name": "amountB",
          "type": "uint256"
        }
      ],
      "stateMutability": "nonpayable",
      "type": "function"
    },
    {
      "inputs": [
        {
          "internalType": "address",
          "name": "token",
          "type": "address"
        },
        {
          "internalType": "uint256",
          "name": "liquidity",
          "type": "uint256"
        },
        {
          "internalType": "uint256",
          "name": "amountTokenMin",
          "type": "uint256"
        },
        {
          "internalType": "uint256",
          "name": "amountBNBMin",
          "type": "uint256"
        },
        {
          "internalType": "address",
          "name": "to",
          "type": "address"
        },
        {
          "internalType": "uint256",
          "name": "deadline",
          "type": "uint256"
        },
        {
          "internalType": "bool",
          "name": "approveMax",
          "type": "bool"
        },
        {
          "internalType": "uint8",
          "name": "v",
          "type": "uint8"
        },
        {
          "internalType": "bytes32",
          "name": "r",
          "type": "bytes32"
        },
        {
          "internalType": "bytes32",
          "name": "s",
          "type": "bytes32"
        }
      ],
      "name": "removeLiquidityBNBWithPermit",
      "outputs": [
        {
          "internalType": "uint256",
          "name": "amountToken",
          "type": "uint256"
        },
        {
          "internalType": "uint256",
          "name": "amountBNB",
          "type": "uint256"
        }
      ],
      "stateMutability": "nonpayable",
      "type": "function"
    },
    {
      "inputs": [
        {
          "internalType": "address",
          "name": "token",
          "type": "address"
        },
        {
          "internalType": "uint256",
          "name": "liquidity",
          "type": "uint256"
        },
        {
          "internalType": "uint256",
          "name": "amountTokenMin",
          "type": "uint256"
        },
        {
          "internalType": "uint256",
          "name": "amountBNBMin",
          "type": "uint256"
        },
        {
          "internalType": "address",
          "name": "to",
          "type": "address"
        },
        {
          "internalType": "uint256",
          "name": "deadline",
          "type": "uint256"
        }
      ],
      "name": "removeLiquidityBNBSupportingFeeOnTransferTokens",
      "outputs": [
        {
          "internalType": "uint256",
          "name": "amountBNB",
          "type": "uint256"
        }
      ],
      "stateMutability": "nonpayable",
      "type": "function"
    },
    {
      "inputs": [
        {
          "internalType": "address",
          "name": "token",
          "type": "address"
        },
        {
          "internalType": "uint256",
          "name": "liquidity",
          "type": "uint256"
        },
        {
          "internalType": "uint256",
          "name": "amountTokenMin",
          "type": "uint256"
        },
        {
          "internalType": "uint256",
          "name": "amountBNBMin",
          "type": "uint256"
        },
        {
          "internalType": "address",
          "name": "to",
          "type": "address"
        },
        {
          "internalType": "uint256",
          "name": "deadline",
          "type": "uint256"
        },
        {
          "internalType": "bool",
          "name": "approveMax",
          "type": "bool"
        },
        {
          "internalType": "uint8",
          "name": "v",
          "type": "uint8"
        },
        {
          "internalType": "bytes32",
          "name": "r",
          "type": "bytes32"
        },
        {
          "internalType": "bytes32",
          "name": "s",
          "type": "bytes32"
        }
      ],
      "name": "removeLiquidityBNBWithPermitSupportingFeeOnTransferTokens",
      "outputs": [
        {
          "internalType": "uint256",
          "name": "amountBNB",
          "type": "uint256"
        }
      ],
      "stateMutability": "nonpayable",
      "type": "function"
    },
    {
      "inputs": [
        {
          "internalType": "uint256",
          "name": "amountIn",
          "type": "uint256"
        },
        {
          "internalType": "uint256",
          "name": "amountOutMin",
          "type": "uint256"
        },
        {
          "internalType": "address[]",
          "name": "path",
          "type": "address[]"
        },
        {
          "internalType": "address",
          "name": "to",
          "type": "address"
        },
        {
          "internalType": "uint256",
          "name": "deadline",
          "type": "uint256"
        }
      ],
      "name": "swapExactTokensForTokens",
      "outputs": [
        {
          "internalType": "uint256[]",
          "name": "amounts",
          "type": "uint256[]"
        }
      ],
      "stateMutability": "nonpayable",
      "type": "function"
    },
    {
      "inputs": [
        {
          "internalType": "uint256",
          "name": "amountOut",
          "type": "uint256"
        },
        {
          "internalType": "uint256",
          "name": "amountInMax",
          "type": "uint256"
        },
        {
          "internalType": "address[]",
          "name": "path",
          "type": "address[]"
        },
        {
          "internalType": "address",
          "name": "to",
          "type": "address"
        },
        {
          "internalType": "uint256",
          "name": "deadline",
          "type": "uint256"
        }
      ],
      "name": "swapTokensForExactTokens",
      "outputs": [
        {
          "internalType": "uint256[]",
          "name": "amounts",
          "type": "uint256[]"
        }
      ],
      "stateMutability": "nonpayable",
      "type": "function"
    },
    {
      "inputs": [
        {
          "internalType": "uint256",
          "name": "amountOutMin",
          "type": "uint256"
        },
        {
          "internalType": "address[]",
          "name": "path",
          "type": "address[]"
        },
        {
          "internalType": "address",
          "name": "to",
          "type": "address"
        },
        {
          "internalType": "uint256",
          "name": "deadline",
          "type": "uint256"
        }
      ],
      "name": "swapExactBNBForTokens",
      "outputs": [
        {
          "internalType": "uint256[]",
          "name": "amounts",
          "type": "uint256[]"
        }
      ],
      "stateMutability": "payable",
      "type": "function",
      "payable": true
    },
    {
      "inputs": [
        {
          "internalType": "uint256",
          "name": "amountOut",
          "type": "uint256"
        },
        {
          "internalType": "uint256",
          "name": "amountInMax",
          "type": "uint256"
        },
        {
          "internalType": "address[]",
          "name": "path",
          "type": "address[]"
        },
        {
          "internalType": "address",
          "name": "to",
          "type": "address"
        },
        {
          "internalType": "uint256",
          "name": "deadline",
          "type": "uint256"
        }
      ],
      "name": "swapTokensForExactBNB",
      "outputs": [
        {
          "internalType": "uint256[]",
          "name": "amounts",
          "type": "uint256[]"
        }
      ],
      "stateMutability": "nonpayable",
      "type": "function"
    },
    {
      "inputs": [
        {
          "internalType": "uint256",
          "name": "amountIn",
          "type": "uint256"
        },
        {
          "internalType": "uint256",
          "name": "amountOutMin",
          "type": "uint256"
        },
        {
          "internalType": "address[]",
          "name": "path",
          "type": "address[]"
        },
        {
          "internalType": "address",
          "name": "to",
          "type": "address"
        },
        {
          "internalType": "uint256",
          "name": "deadline",
          "type": "uint256"
        }
      ],
      "name": "swapExactTokensForBNB",
      "outputs": [
        {
          "internalType": "uint256[]",
          "name": "amounts",
          "type": "uint256[]"
        }
      ],
      "stateMutability": "nonpayable",
      "type": "function"
    },
    {
      "inputs": [
        {
          "internalType": "uint256",
          "name": "amountOut",
          "type": "uint256"
        },
        {
          "internalType": "address[]",
          "name": "path",
          "type": "address[]"
        },
        {
          "internalType": "address",
          "name": "to",
          "type": "address"
        },
        {
          "internalType": "uint256",
          "name": "deadline",
          "type": "uint256"
        }
      ],
      "name": "swapBNBForExactTokens",
      "outputs": [
        {
          "internalType": "uint256[]",
          "name": "amounts",
          "type": "uint256[]"
        }
      ],
      "stateMutability": "payable",
      "type": "function",
      "payable": true
    },
    {
      "inputs": [
        {
          "internalType": "uint256",
          "name": "amountA",
          "type": "uint256"
        },
        {
          "internalType": "uint256",
          "name": "reserveA",
          "type": "uint256"
        },
        {
          "internalType": "uint256",
          "name": "reserveB",
          "type": "uint256"
        }
      ],
      "name": "quote",
      "outputs": [
        {
          "internalType": "uint256",
          "name": "amountB",
          "type": "uint256"
        }
      ],
      "stateMutability": "pure",
      "type": "function",
      "constant": true
    },
    {
      "inputs": [
        {
          "internalType": "uint256",
          "name": "amountIn",
          "type": "uint256"
        },
        {
          "internalType": "uint256",
          "name": "reserveIn",
          "type": "uint256"
        },
        {
          "internalType": "uint256",
          "name": "reserveOut",
          "type": "uint256"
        }
      ],
      "name": "getAmountOut",
      "outputs": [
        {
          "internalType": "uint256",
          "name": "amountOut",
          "type": "uint256"
        }
      ],
      "stateMutability": "pure",
      "type": "function",
      "constant": true
    },
    {
      "inputs": [
        {
          "internalType": "uint256",
          "name": "amountOut",
          "type": "uint256"
        },
        {
          "internalType": "uint256",
          "name": "reserveIn",
          "type": "uint256"
        },
        {
          "internalType": "uint256",
          "name": "reserveOut",
          "type": "uint256"
        }
      ],
      "name": "getAmountIn",
      "outputs": [
        {
          "internalType": "uint256",
          "name": "amountIn",
          "type": "uint256"
        }
      ],
      "stateMutability": "pure",
      "type": "function",
      "constant": true
    },
    {
      "inputs": [
        {
          "internalType": "uint256",
          "name": "amountIn",
          "type": "uint256"
        },
        {
          "internalType": "address[]",
          "name": "path",
          "type": "address[]"
        }
      ],
      "name": "getAmountsOut",
      "outputs": [
        {
          "internalType": "uint256[]",
          "name": "amounts",
          "type": "uint256[]"
        }
      ],
      "stateMutability": "view",
      "type": "function",
      "constant": true
    },
    {
      "inputs": [
        {
          "internalType": "uint256",
          "name": "amountOut",
          "type": "uint256"
        },
        {
          "internalType": "address[]",
          "name": "path",
          "type": "address[]"
        }
      ],
      "name": "getAmountsIn",
      "outputs": [
        {
          "internalType": "uint256[]",
          "name": "amounts",
          "type": "uint256[]"
        }
      ],
      "stateMutability": "view",
      "type": "function",
      "constant": true
    }
  ],
  "bytecode": "0x60c060405234801561001057600080fd5b5060405162005632380380620056328339818101604052604081101561003557600080fd5b8101908080519060200190929190805190602001909291905050508173ffffffffffffffffffffffffffffffffffffffff1660808173ffffffffffffffffffffffffffffffffffffffff1660601b815250508073ffffffffffffffffffffffffffffffffffffffff1660a08173ffffffffffffffffffffffffffffffffffffffff1660601b81525050505060805160601c60a05160601c615462620001d060003980610135528061149a52806118ff5280611bdd5280611cd35280611ebe5280612083528061211852806125a95280612646528061280e52806128a35280612b045280612bf752806130ea52806133c55280613511528061354f5280613815528061386e52806138a252806139235250806112bb52806112f35280611478528061168f528061179b52806119f15280611afd5280611cb15280611fab528061215752806123b552806124be528061273352806128e25280612d165280613018528061304152806131dc52806132e55280613687528061384c528061434552806143895280614b7c5280614ca45280614dba52506154626000f3fe60806040526004361061012e5760003560e01c80638dd95002116100ab578063c45a01551161006f578063c45a015514610dc2578063d06ca61f14610e19578063d67b571e14610f3d578063e058848814611056578063e8e337001461110a578063eaaed442146111f05761018a565b80638dd9500214610a855780639cf6891114610adc578063ad615dec14610bde578063b7e6594914610c41578063baa2abde14610cee5761018a565b80635d616c5b116100f25780635d616c5b14610613578063685a0a341461072c5780638332a9631461080757806385f8c259146109095780638803dbee1461096c5761018a565b8063054d50d41461018f5780631f00ca74146101f25780632195995c1461031657806334a0772d1461041857806338ed1739146104fa5761018a565b3661018a577f000000000000000000000000000000000000000000000000000000000000000073ffffffffffffffffffffffffffffffffffffffff163373ffffffffffffffffffffffffffffffffffffffff161461018857fe5b005b600080fd5b34801561019b57600080fd5b506101dc600480360360608110156101b257600080fd5b8101908080359060200190929190803590602001909291908035906020019092919050505061129e565b6040518082815260200191505060405180910390f35b3480156101fe57600080fd5b506102bf6004803603604081101561021557600080fd5b81019080803590602001909291908035906020019064010000000081111561023c57600080fd5b82018360208201111561024e57600080fd5b8035906020019184602083028401116401000000008311171561027057600080fd5b919080806020026020016040519081016040528093929190818152602001838360200280828437600081840152601f19601f8201169050808301925050505050505091929192905050506112b4565b6040518080602001828103825283818151815260200191508051906020019060200280838360005b838110156103025780820151818401526020810190506102e7565b505050509050019250505060405180910390f35b34801561032257600080fd5b506103fb600480360361016081101561033a57600080fd5b81019080803573ffffffffffffffffffffffffffffffffffffffff169060200190929190803573ffffffffffffffffffffffffffffffffffffffff169060200190929190803590602001909291908035906020019092919080359060200190929190803573ffffffffffffffffffffffffffffffffffffffff16906020019092919080359060200190929190803515159060200190929190803560ff16906020019092919080359060200190929190803590602001909291905050506112e9565b604051808381526020018281526020019250505060405180910390f35b34801561042457600080fd5b506104dd600480360361014081101561043c57600080fd5b81019080803573ffffffffffffffffffffffffffffffffffffffff169060200190929190803590602001909291908035906020019092919080359060200190929190803573ffffffffffffffffffffffffffffffffffffffff16906020019092919080359060200190929190803515159060200190929190803560ff169060200190929190803590602001909291908035906020019092919050505061146e565b604051808381526020018281526020019250505060405180910390f35b34801561050657600080fd5b506105bc600480360360a081101561051d57600080fd5b8101908080359060200190929190803590602001909291908035906020019064010000000081111561054e57600080fd5b82018360208201111561056057600080fd5b8035906020019184602083028401116401000000008311171561058257600080fd5b9091929391929390803573ffffffffffffffffffffffffffffffffffffffff16906020019092919080359060200190929190505050611611565b6040518080602001828103825283818151815260200191508051906020019060200280838360005b838110156105ff5780820151818401526020810190506105e4565b505050509050019250505060405180910390f35b34801561061f57600080fd5b506106d5600480360360a081101561063657600080fd5b8101908080359060200190929190803590602001909291908035906020019064010000000081111561066757600080fd5b82018360208201111561067957600080fd5b8035906020019184602083028401116401000000008311171561069b57600080fd5b9091929391929390803573ffffffffffffffffffffffffffffffffffffffff16906020019092919080359060200190929190505050611884565b6040518080602001828103825283818151815260200191508051906020019060200280838360005b838110156107185780820151818401526020810190506106fd565b505050509050019250505060405180910390f35b34801561073857600080fd5b506107f1600480360361014081101561075057600080fd5b81019080803573ffffffffffffffffffffffffffffffffffffffff169060200190929190803590602001909291908035906020019092919080359060200190929190803573ffffffffffffffffffffffffffffffffffffffff16906020019092919080359060200190929190803515159060200190929190803560ff1690602001909291908035906020019092919080359060200190929190505050611ca9565b6040518082815260200191505060405180910390f35b6108b26004803603608081101561081d57600080fd5b81019080803590602001909291908035906020019064010000000081111561084457600080fd5b82018360208201111561085657600080fd5b8035906020019184602083028401116401000000008311171561087857600080fd5b9091929391929390803573ffffffffffffffffffffffffffffffffffffffff16906020019092919080359060200190929190505050611e43565b6040518080602001828103825283818151815260200191508051906020019060200280838360005b838110156108f55780820151818401526020810190506108da565b505050509050019250505060405180910390f35b34801561091557600080fd5b506109566004803603606081101561092c57600080fd5b81019080803590602001909291908035906020019092919080359060200190929190505050612321565b6040518082815260200191505060405180910390f35b34801561097857600080fd5b50610a2e600480360360a081101561098f57600080fd5b810190808035906020019092919080359060200190929190803590602001906401000000008111156109c057600080fd5b8201836020820111156109d257600080fd5b803590602001918460208302840111640100000000831117156109f457600080fd5b9091929391929390803573ffffffffffffffffffffffffffffffffffffffff16906020019092919080359060200190929190505050612337565b6040518080602001828103825283818151815260200191508051906020019060200280838360005b83811015610a71578082015181840152602081019050610a56565b505050509050019250505060405180910390f35b348015610a9157600080fd5b50610a9a6125a7565b604051808273ffffffffffffffffffffffffffffffffffffffff1673ffffffffffffffffffffffffffffffffffffffff16815260200191505060405180910390f35b610b8760048036036080811015610af257600080fd5b810190808035906020019092919080359060200190640100000000811115610b1957600080fd5b820183602082011115610b2b57600080fd5b80359060200191846020830284011164010000000083111715610b4d57600080fd5b9091929391929390803573ffffffffffffffffffffffffffffffffffffffff169060200190929190803590602001909291905050506125cb565b6040518080602001828103825283818151815260200191508051906020019060200280838360005b83811015610bca578082015181840152602081019050610baf565b505050509050019250505060405180910390f35b348015610bea57600080fd5b50610c2b60048036036060811015610c0157600080fd5b81019080803590602001909291908035906020019092919080359060200190929190505050612a6f565b6040518082815260200191505060405180910390f35b348015610c4d57600080fd5b50610cd8600480360360c0811015610c6457600080fd5b81019080803573ffffffffffffffffffffffffffffffffffffffff169060200190929190803590602001909291908035906020019092919080359060200190929190803573ffffffffffffffffffffffffffffffffffffffff16906020019092919080359060200190929190505050612a85565b6040518082815260200191505060405180910390f35b348015610cfa57600080fd5b50610da5600480360360e0811015610d1157600080fd5b81019080803573ffffffffffffffffffffffffffffffffffffffff169060200190929190803573ffffffffffffffffffffffffffffffffffffffff169060200190929190803590602001909291908035906020019092919080359060200190929190803573ffffffffffffffffffffffffffffffffffffffff16906020019092919080359060200190929190505050612c95565b604051808381526020018281526020019250505060405180910390f35b348015610dce57600080fd5b50610dd7613016565b604051808273ffffffffffffffffffffffffffffffffffffffff1673ffffffffffffffffffffffffffffffffffffffff16815260200191505060405180910390f35b348015610e2557600080fd5b50610ee660048036036040811015610e3c57600080fd5b810190808035906020019092919080359060200190640100000000811115610e6357600080fd5b820183602082011115610e7557600080fd5b80359060200191846020830284011164010000000083111715610e9757600080fd5b919080806020026020016040519081016040528093929190818152602001838360200280828437600081840152601f19601f82011690508083019250505050505050919291929050505061303a565b6040518080602001828103825283818151815260200191508051906020019060200280838360005b83811015610f29578082015181840152602081019050610f0e565b505050509050019250505060405180910390f35b348015610f4957600080fd5b50610fff600480360360a0811015610f6057600080fd5b81019080803590602001909291908035906020019092919080359060200190640100000000811115610f9157600080fd5b820183602082011115610fa357600080fd5b80359060200191846020830284011164010000000083111715610fc557600080fd5b9091929391929390803573ffffffffffffffffffffffffffffffffffffffff1690602001909291908035906020019092919050505061306f565b6040518080602001828103825283818151815260200191508051906020019060200280838360005b83811015611042578082015181840152602081019050611027565b505050509050019250505060405180910390f35b34801561106257600080fd5b506110ed600480360360c081101561107957600080fd5b81019080803573ffffffffffffffffffffffffffffffffffffffff169060200190929190803590602001909291908035906020019092919080359060200190929190803573ffffffffffffffffffffffffffffffffffffffff16906020019092919080359060200190929190505050613491565b604051808381526020018281526020019250505060405180910390f35b34801561111657600080fd5b506111cc600480360361010081101561112e57600080fd5b81019080803573ffffffffffffffffffffffffffffffffffffffff169060200190929190803573ffffffffffffffffffffffffffffffffffffffff16906020019092919080359060200190929190803590602001909291908035906020019092919080359060200190929190803573ffffffffffffffffffffffffffffffffffffffff169060200190929190803590602001909291905050506135ee565b60405180848152602001838152602001828152602001935050505060405180910390f35b61127a600480360360c081101561120657600080fd5b81019080803573ffffffffffffffffffffffffffffffffffffffff169060200190929190803590602001909291908035906020019092919080359060200190929190803573ffffffffffffffffffffffffffffffffffffffff16906020019092919080359060200190929190505050613793565b60405180848152602001838152602001828152602001935050505060405180910390f35b60006112ab848484613ae8565b90509392505050565b60606112e17f00000000000000000000000000000000000000000000000000000000000000008484613c18565b905092915050565b60008060006113197f00000000000000000000000000000000000000000000000000000000000000008f8f613d98565b9050600087611328578c61134a565b7fffffffffffffffffffffffffffffffffffffffffffffffffffffffffffffffff5b90508173ffffffffffffffffffffffffffffffffffffffff1663d505accf3330848d8c8c8c6040518863ffffffff1660e01b8152600401808873ffffffffffffffffffffffffffffffffffffffff1673ffffffffffffffffffffffffffffffffffffffff1681526020018773ffffffffffffffffffffffffffffffffffffffff1673ffffffffffffffffffffffffffffffffffffffff1681526020018681526020018581526020018460ff1660ff168152602001838152602001828152602001975050505050505050600060405180830381600087803b15801561142d57600080fd5b505af1158015611441573d6000803e3d6000fd5b505050506114548f8f8f8f8f8f8f612c95565b809450819550505050509b509b9950505050505050505050565b60008060006114be7f00000000000000000000000000000000000000000000000000000000000000008e7f0000000000000000000000000000000000000000000000000000000000000000613d98565b90506000876114cd578c6114ef565b7fffffffffffffffffffffffffffffffffffffffffffffffffffffffffffffffff5b90508173ffffffffffffffffffffffffffffffffffffffff1663d505accf3330848d8c8c8c6040518863ffffffff1660e01b8152600401808873ffffffffffffffffffffffffffffffffffffffff1673ffffffffffffffffffffffffffffffffffffffff1681526020018773ffffffffffffffffffffffffffffffffffffffff1673ffffffffffffffffffffffffffffffffffffffff1681526020018681526020018581526020018460ff1660ff168152602001838152602001828152602001975050505050505050600060405180830381600087803b1580156115d257600080fd5b505af11580156115e6573d6000803e3d6000fd5b505050506115f88e8e8e8e8e8e613491565b809450819550505050509a509a98505050505050505050565b6060814281101561168a576040517f08c379a00000000000000000000000000000000000000000000000000000000081526004018080602001828103825260198152602001807f4b686964697253776170526f757465723a20455850495245440000000000000081525060200191505060405180910390fd5b6116f67f000000000000000000000000000000000000000000000000000000000000000089888880806020026020016040519081016040528093929190818152602001838360200280828437600081840152601f19601f82011690508083019250505050505050613ef3565b9150868260018451038151811061170957fe5b60200260200101511015611768576040517f08c379a000000000000000000000000000000000000000000000000000000000815260040180806020018281038252602c8152602001806152ca602c913960400191505060405180910390fd5b61182d8686600081811061177857fe5b9050602002013573ffffffffffffffffffffffffffffffffffffffff16336118137f00000000000000000000000000000000000000000000000000000000000000008a8a60008181106117c757fe5b9050602002013573ffffffffffffffffffffffffffffffffffffffff168b8b60018181106117f157fe5b9050602002013573ffffffffffffffffffffffffffffffffffffffff16613d98565b8560008151811061182057fe5b602002602001015161406b565b61187982878780806020026020016040519081016040528093929190818152602001838360200280828437600081840152601f19601f820116905080830192505050505050508661427c565b509695505050505050565b606081428110156118fd576040517f08c379a00000000000000000000000000000000000000000000000000000000081526004018080602001828103825260198152602001807f4b686964697253776170526f757465723a20455850495245440000000000000081525060200191505060405180910390fd5b7f000000000000000000000000000000000000000000000000000000000000000073ffffffffffffffffffffffffffffffffffffffff1686866001898990500381811061194657fe5b9050602002013573ffffffffffffffffffffffffffffffffffffffff1673ffffffffffffffffffffffffffffffffffffffff16146119ec576040517f08c379a000000000000000000000000000000000000000000000000000000000815260040180806020018281038252601e8152602001807f4b686964697253776170526f757465723a20494e56414c49445f50415448000081525060200191505060405180910390fd5b611a587f000000000000000000000000000000000000000000000000000000000000000089888880806020026020016040519081016040528093929190818152602001838360200280828437600081840152601f19601f82011690508083019250505050505050613ef3565b91508682600184510381518110611a6b57fe5b60200260200101511015611aca576040517f08c379a000000000000000000000000000000000000000000000000000000000815260040180806020018281038252602c8152602001806152ca602c913960400191505060405180910390fd5b611b8f86866000818110611ada57fe5b9050602002013573ffffffffffffffffffffffffffffffffffffffff1633611b757f00000000000000000000000000000000000000000000000000000000000000008a8a6000818110611b2957fe5b9050602002013573ffffffffffffffffffffffffffffffffffffffff168b8b6001818110611b5357fe5b9050602002013573ffffffffffffffffffffffffffffffffffffffff16613d98565b85600081518110611b8257fe5b602002602001015161406b565b611bdb82878780806020026020016040519081016040528093929190818152602001838360200280828437600081840152601f19601f820116905080830192505050505050503061427c565b7f000000000000000000000000000000000000000000000000000000000000000073ffffffffffffffffffffffffffffffffffffffff16632e1a7d4d83600185510381518110611c2757fe5b60200260200101516040518263ffffffff1660e01b815260040180828152602001915050600060405180830381600087803b158015611c6557600080fd5b505af1158015611c79573d6000803e3d6000fd5b50505050611c9e8483600185510381518110611c9157fe5b602002602001015161446f565b509695505050505050565b600080611cf77f00000000000000000000000000000000000000000000000000000000000000008d7f0000000000000000000000000000000000000000000000000000000000000000613d98565b9050600086611d06578b611d28565b7fffffffffffffffffffffffffffffffffffffffffffffffffffffffffffffffff5b90508173ffffffffffffffffffffffffffffffffffffffff1663d505accf3330848c8b8b8b6040518863ffffffff1660e01b8152600401808873ffffffffffffffffffffffffffffffffffffffff1673ffffffffffffffffffffffffffffffffffffffff1681526020018773ffffffffffffffffffffffffffffffffffffffff1673ffffffffffffffffffffffffffffffffffffffff1681526020018681526020018581526020018460ff1660ff168152602001838152602001828152602001975050505050505050600060405180830381600087803b158015611e0b57600080fd5b505af1158015611e1f573d6000803e3d6000fd5b50505050611e318d8d8d8d8d8d612a85565b925050509a9950505050505050505050565b60608142811015611ebc576040517f08c379a00000000000000000000000000000000000000000000000000000000081526004018080602001828103825260198152602001807f4b686964697253776170526f757465723a20455850495245440000000000000081525060200191505060405180910390fd5b7f000000000000000000000000000000000000000000000000000000000000000073ffffffffffffffffffffffffffffffffffffffff1686866000818110611f0057fe5b9050602002013573ffffffffffffffffffffffffffffffffffffffff1673ffffffffffffffffffffffffffffffffffffffff1614611fa6576040517f08c379a000000000000000000000000000000000000000000000000000000000815260040180806020018281038252601e8152602001807f4b686964697253776170526f757465723a20494e56414c49445f50415448000081525060200191505060405180910390fd5b6120127f000000000000000000000000000000000000000000000000000000000000000088888880806020026020016040519081016040528093929190818152602001838360200280828437600081840152601f19601f82011690508083019250505050505050613c18565b9150348260008151811061202257fe5b60200260200101511115612081576040517f08c379a00000000000000000000000000000000000000000000000000000000081526004018080602001828103825260288152602001806152a26028913960400191505060405180910390fd5b7f000000000000000000000000000000000000000000000000000000000000000073ffffffffffffffffffffffffffffffffffffffff1663d0e30db0836000815181106120ca57fe5b60200260200101516040518263ffffffff1660e01b81526004016000604051808303818588803b1580156120fd57600080fd5b505af1158015612111573d6000803e3d6000fd5b50505050507f000000000000000000000000000000000000000000000000000000000000000073ffffffffffffffffffffffffffffffffffffffff1663a9059cbb6121cf7f00000000000000000000000000000000000000000000000000000000000000008989600081811061218357fe5b9050602002013573ffffffffffffffffffffffffffffffffffffffff168a8a60018181106121ad57fe5b9050602002013573ffffffffffffffffffffffffffffffffffffffff16613d98565b846000815181106121dc57fe5b60200260200101516040518363ffffffff1660e01b8152600401808373ffffffffffffffffffffffffffffffffffffffff1673ffffffffffffffffffffffffffffffffffffffff16815260200182815260200192505050602060405180830381600087803b15801561224d57600080fd5b505af1158015612261573d6000803e3d6000fd5b505050506040513d602081101561227757600080fd5b810190808051906020019092919050505061228e57fe5b6122da82878780806020026020016040519081016040528093929190818152602001838360200280828437600081840152601f19601f820116905080830192505050505050508661427c565b816000815181106122e757fe5b602002602001015134111561231757612316338360008151811061230757fe5b6020026020010151340361446f565b5b5095945050505050565b600061232e8484846145ce565b90509392505050565b606081428110156123b0576040517f08c379a00000000000000000000000000000000000000000000000000000000081526004018080602001828103825260198152602001807f4b686964697253776170526f757465723a20455850495245440000000000000081525060200191505060405180910390fd5b61241c7f000000000000000000000000000000000000000000000000000000000000000089888880806020026020016040519081016040528093929190818152602001838360200280828437600081840152601f19601f82011690508083019250505050505050613c18565b9150868260008151811061242c57fe5b6020026020010151111561248b576040517f08c379a00000000000000000000000000000000000000000000000000000000081526004018080602001828103825260288152602001806152a26028913960400191505060405180910390fd5b6125508686600081811061249b57fe5b9050602002013573ffffffffffffffffffffffffffffffffffffffff16336125367f00000000000000000000000000000000000000000000000000000000000000008a8a60008181106124ea57fe5b9050602002013573ffffffffffffffffffffffffffffffffffffffff168b8b600181811061251457fe5b9050602002013573ffffffffffffffffffffffffffffffffffffffff16613d98565b8560008151811061254357fe5b602002602001015161406b565b61259c82878780806020026020016040519081016040528093929190818152602001838360200280828437600081840152601f19601f820116905080830192505050505050508661427c565b509695505050505050565b7f000000000000000000000000000000000000000000000000000000000000000081565b60608142811015612644576040517f08c379a00000000000000000000000000000000000000000000000000000000081526004018080602001828103825260198152602001807f4b686964697253776170526f757465723a20455850495245440000000000000081525060200191505060405180910390fd5b7f000000000000000000000000000000000000000000000000000000000000000073ffffffffffffffffffffffffffffffffffffffff168686600081811061268857fe5b9050602002013573ffffffffffffffffffffffffffffffffffffffff1673ffffffffffffffffffffffffffffffffffffffff161461272e576040517f08c379a000000000000000000000000000000000000000000000000000000000815260040180806020018281038252601e8152602001807f4b686964697253776170526f757465723a20494e56414c49445f50415448000081525060200191505060405180910390fd5b61279a7f000000000000000000000000000000000000000000000000000000000000000034888880806020026020016040519081016040528093929190818152602001838360200280828437600081840152601f19601f82011690508083019250505050505050613ef3565b915086826001845103815181106127ad57fe5b6020026020010151101561280c576040517f08c379a000000000000000000000000000000000000000000000000000000000815260040180806020018281038252602c8152602001806152ca602c913960400191505060405180910390fd5b7f000000000000000000000000000000000000000000000000000000000000000073ffffffffffffffffffffffffffffffffffffffff1663d0e30db08360008151811061285557fe5b60200260200101516040518263ffffffff1660e01b81526004016000604051808303818588803b15801561288857600080fd5b505af115801561289c573d6000803e3d6000fd5b50505050507f000000000000000000000000000000000000000000000000000000000000000073ffffffffffffffffffffffffffffffffffffffff1663a9059cbb61295a7f00000000000000000000000000000000000000000000000000000000000000008989600081811061290e57fe5b9050602002013573ffffffffffffffffffffffffffffffffffffffff168a8a600181811061293857fe5b9050602002013573ffffffffffffffffffffffffffffffffffffffff16613d98565b8460008151811061296757fe5b60200260200101516040518363ffffffff1660e01b8152600401808373ffffffffffffffffffffffffffffffffffffffff1673ffffffffffffffffffffffffffffffffffffffff16815260200182815260200192505050602060405180830381600087803b1580156129d857600080fd5b505af11580156129ec573d6000803e3d6000fd5b505050506040513d6020811015612a0257600080fd5b8101908080519060200190929190505050612a1957fe5b612a6582878780806020026020016040519081016040528093929190818152602001838360200280828437600081840152601f19601f820116905080830192505050505050508661427c565b5095945050505050565b6000612a7c84848461470b565b90509392505050565b60008142811015612afe576040517f08c379a00000000000000000000000000000000000000000000000000000000081526004018080602001828103825260198152602001807f4b686964697253776170526f757465723a20455850495245440000000000000081525060200191505060405180910390fd5b612b2d887f00000000000000000000000000000000000000000000000000000000000000008989893089612c95565b905080925050612bf588858a73ffffffffffffffffffffffffffffffffffffffff166370a08231306040518263ffffffff1660e01b8152600401808273ffffffffffffffffffffffffffffffffffffffff1673ffffffffffffffffffffffffffffffffffffffff16815260200191505060206040518083038186803b158015612bb557600080fd5b505afa158015612bc9573d6000803e3d6000fd5b505050506040513d6020811015612bdf57600080fd5b81019080805190602001909291905050506147ef565b7f000000000000000000000000000000000000000000000000000000000000000073ffffffffffffffffffffffffffffffffffffffff16632e1a7d4d836040518263ffffffff1660e01b815260040180828152602001915050600060405180830381600087803b158015612c6857600080fd5b505af1158015612c7c573d6000803e3d6000fd5b50505050612c8a848361446f565b509695505050505050565b6000808242811015612d0f576040517f08c379a00000000000000000000000000000000000000000000000000000000081526004018080602001828103825260198152602001807f4b686964697253776170526f757465723a20455850495245440000000000000081525060200191505060405180910390fd5b6000612d3c7f00000000000000000000000000000000000000000000000000000000000000008c8c613d98565b90508073ffffffffffffffffffffffffffffffffffffffff166323b872dd33838c6040518463ffffffff1660e01b8152600401808473ffffffffffffffffffffffffffffffffffffffff1673ffffffffffffffffffffffffffffffffffffffff1681526020018373ffffffffffffffffffffffffffffffffffffffff1673ffffffffffffffffffffffffffffffffffffffff1681526020018281526020019350505050602060405180830381600087803b158015612df957600080fd5b505af1158015612e0d573d6000803e3d6000fd5b505050506040513d6020811015612e2357600080fd5b8101908080519060200190929190505050506000808273ffffffffffffffffffffffffffffffffffffffff166389afcb44896040518263ffffffff1660e01b8152600401808273ffffffffffffffffffffffffffffffffffffffff1673ffffffffffffffffffffffffffffffffffffffff1681526020019150506040805180830381600087803b158015612eb657600080fd5b505af1158015612eca573d6000803e3d6000fd5b505050506040513d6040811015612ee057600080fd5b810190808051906020019092919080519060200190929190505050915091506000612f0b8e8e6149e8565b5090508073ffffffffffffffffffffffffffffffffffffffff168e73ffffffffffffffffffffffffffffffffffffffff1614612f48578183612f4b565b82825b80975081985050508a871015612fac576040517f08c379a00000000000000000000000000000000000000000000000000000000081526004018080602001828103825260278152602001806152f66027913960400191505060405180910390fd5b89861015613005576040517f08c379a000000000000000000000000000000000000000000000000000000000815260040180806020018281038252602781526020018061527b6027913960400191505060405180910390fd5b505050505097509795505050505050565b7f000000000000000000000000000000000000000000000000000000000000000081565b60606130677f00000000000000000000000000000000000000000000000000000000000000008484613ef3565b905092915050565b606081428110156130e8576040517f08c379a00000000000000000000000000000000000000000000000000000000081526004018080602001828103825260198152602001807f4b686964697253776170526f757465723a20455850495245440000000000000081525060200191505060405180910390fd5b7f000000000000000000000000000000000000000000000000000000000000000073ffffffffffffffffffffffffffffffffffffffff1686866001898990500381811061313157fe5b9050602002013573ffffffffffffffffffffffffffffffffffffffff1673ffffffffffffffffffffffffffffffffffffffff16146131d7576040517f08c379a000000000000000000000000000000000000000000000000000000000815260040180806020018281038252601e8152602001807f4b686964697253776170526f757465723a20494e56414c49445f50415448000081525060200191505060405180910390fd5b6132437f000000000000000000000000000000000000000000000000000000000000000089888880806020026020016040519081016040528093929190818152602001838360200280828437600081840152601f19601f82011690508083019250505050505050613c18565b9150868260008151811061325357fe5b602002602001015111156132b2576040517f08c379a00000000000000000000000000000000000000000000000000000000081526004018080602001828103825260288152602001806152a26028913960400191505060405180910390fd5b613377868660008181106132c257fe5b9050602002013573ffffffffffffffffffffffffffffffffffffffff163361335d7f00000000000000000000000000000000000000000000000000000000000000008a8a600081811061331157fe5b9050602002013573ffffffffffffffffffffffffffffffffffffffff168b8b600181811061333b57fe5b9050602002013573ffffffffffffffffffffffffffffffffffffffff16613d98565b8560008151811061336a57fe5b602002602001015161406b565b6133c382878780806020026020016040519081016040528093929190818152602001838360200280828437600081840152601f19601f820116905080830192505050505050503061427c565b7f000000000000000000000000000000000000000000000000000000000000000073ffffffffffffffffffffffffffffffffffffffff16632e1a7d4d8360018551038151811061340f57fe5b60200260200101516040518263ffffffff1660e01b815260040180828152602001915050600060405180830381600087803b15801561344d57600080fd5b505af1158015613461573d6000803e3d6000fd5b50505050613486848360018551038151811061347957fe5b602002602001015161446f565b509695505050505050565b600080824281101561350b576040517f08c379a00000000000000000000000000000000000000000000000000000000081526004018080602001828103825260198152602001807f4b686964697253776170526f757465723a20455850495245440000000000000081525060200191505060405180910390fd5b61353a897f00000000000000000000000000000000000000000000000000000000000000008a8a8a308a612c95565b809350819450505061354d8986856147ef565b7f000000000000000000000000000000000000000000000000000000000000000073ffffffffffffffffffffffffffffffffffffffff16632e1a7d4d836040518263ffffffff1660e01b815260040180828152602001915050600060405180830381600087803b1580156135c057600080fd5b505af11580156135d4573d6000803e3d6000fd5b505050506135e2858361446f565b50965096945050505050565b6000806000834281101561366a576040517f08c379a00000000000000000000000000000000000000000000000000000000081526004018080602001828103825260198152602001807f4b686964697253776170526f757465723a20455850495245440000000000000081525060200191505060405180910390fd5b6136788c8c8c8c8c8c614b5f565b809450819550505060006136ad7f00000000000000000000000000000000000000000000000000000000000000008e8e613d98565b90506136bb8d33838861406b565b6136c78c33838761406b565b8073ffffffffffffffffffffffffffffffffffffffff16636a627842886040518263ffffffff1660e01b8152600401808273ffffffffffffffffffffffffffffffffffffffff1673ffffffffffffffffffffffffffffffffffffffff168152602001915050602060405180830381600087803b15801561374657600080fd5b505af115801561375a573d6000803e3d6000fd5b505050506040513d602081101561377057600080fd5b810190808051906020019092919050505092505050985098509895505050505050565b6000806000834281101561380f576040517f08c379a00000000000000000000000000000000000000000000000000000000081526004018080602001828103825260198152602001807f4b686964697253776170526f757465723a20455850495245440000000000000081525060200191505060405180910390fd5b61383d8a7f00000000000000000000000000000000000000000000000000000000000000008b348c8c614b5f565b809450819550505060006138927f00000000000000000000000000000000000000000000000000000000000000008c7f0000000000000000000000000000000000000000000000000000000000000000613d98565b90506138a08b33838861406b565b7f000000000000000000000000000000000000000000000000000000000000000073ffffffffffffffffffffffffffffffffffffffff1663d0e30db0856040518263ffffffff1660e01b81526004016000604051808303818588803b15801561390857600080fd5b505af115801561391c573d6000803e3d6000fd5b50505050507f000000000000000000000000000000000000000000000000000000000000000073ffffffffffffffffffffffffffffffffffffffff1663a9059cbb82866040518363ffffffff1660e01b8152600401808373ffffffffffffffffffffffffffffffffffffffff1673ffffffffffffffffffffffffffffffffffffffff16815260200182815260200192505050602060405180830381600087803b1580156139c857600080fd5b505af11580156139dc573d6000803e3d6000fd5b505050506040513d60208110156139f257600080fd5b8101908080519060200190929190505050613a0957fe5b8073ffffffffffffffffffffffffffffffffffffffff16636a627842886040518263ffffffff1660e01b8152600401808273ffffffffffffffffffffffffffffffffffffffff1673ffffffffffffffffffffffffffffffffffffffff168152602001915050602060405180830381600087803b158015613a8857600080fd5b505af1158015613a9c573d6000803e3d6000fd5b505050506040513d6020811015613ab257600080fd5b8101908080519060200190929190505050925083341115613ada57613ad93385340361446f565b5b505096509650969350505050565b6000808411613b42576040517f08c379a000000000000000000000000000000000000000000000000000000000815260040180806020018281038252602c8152602001806153dd602c913960400191505060405180910390fd5b600083118015613b525750600082115b613ba7576040517f08c379a000000000000000000000000000000000000000000000000000000000815260040180806020018281038252602981526020018061533e6029913960400191505060405180910390fd5b6000613bbe6103e586614f1390919063ffffffff16565b90506000613bd58483614f1390919063ffffffff16565b90506000613c0083613bf26103e889614f1390919063ffffffff16565b614f9990919063ffffffff16565b9050808281613c0b57fe5b0493505050509392505050565b6060600282511015613c92576040517f08c379a000000000000000000000000000000000000000000000000000000000815260040180806020018281038252601f8152602001807f4b6869646972537761704c6962726172793a20494e56414c49445f504154480081525060200191505060405180910390fd5b815167ffffffffffffffff81118015613caa57600080fd5b50604051908082528060200260200182016040528015613cd95781602001602082028036833780820191505090505b5090508281600183510381518110613ced57fe5b6020026020010181815250506000600183510390505b6000811115613d9057600080613d4387866001860381518110613d2257fe5b6020026020010151878681518110613d3657fe5b6020026020010151615021565b91509150613d65848481518110613d5657fe5b602002602001015183836145ce565b846001850381518110613d7457fe5b6020026020010181815250505050808060019003915050613d03565b509392505050565b6000806000613da785856149e8565b91509150858282604051602001808373ffffffffffffffffffffffffffffffffffffffff1673ffffffffffffffffffffffffffffffffffffffff1660601b81526014018273ffffffffffffffffffffffffffffffffffffffff1673ffffffffffffffffffffffffffffffffffffffff1660601b8152601401925050506040516020818303038152906040528051906020012060405160200180807fff000000000000000000000000000000000000000000000000000000000000008152506001018373ffffffffffffffffffffffffffffffffffffffff1673ffffffffffffffffffffffffffffffffffffffff1660601b8152601401828152602001807ff2f0dc1bd379cd1d861883a2773f43b834d6b620254cff587fbc247b2715cc9e815250602001925050506040516020818303038152906040528051906020012060001c925050509392505050565b6060600282511015613f6d576040517f08c379a000000000000000000000000000000000000000000000000000000000815260040180806020018281038252601f8152602001807f4b6869646972537761704c6962726172793a20494e56414c49445f504154480081525060200191505060405180910390fd5b815167ffffffffffffffff81118015613f8557600080fd5b50604051908082528060200260200182016040528015613fb45781602001602082028036833780820191505090505b5090508281600081518110613fc557fe5b60200260200101818152505060005b60018351038110156140635760008061401787868581518110613ff357fe5b602002602001015187600187018151811061400a57fe5b6020026020010151615021565b9150915061403984848151811061402a57fe5b60200260200101518383613ae8565b84600185018151811061404857fe5b60200260200101818152505050508080600101915050613fd4565b509392505050565b600060608573ffffffffffffffffffffffffffffffffffffffff166323b872dd868686604051602401808473ffffffffffffffffffffffffffffffffffffffff1673ffffffffffffffffffffffffffffffffffffffff1681526020018373ffffffffffffffffffffffffffffffffffffffff1673ffffffffffffffffffffffffffffffffffffffff16815260200182815260200193505050506040516020818303038152906040529060e01b6020820180517bffffffffffffffffffffffffffffffffffffffffffffffffffffffff83818316178352505050506040518082805190602001908083835b602083106141785780518252602082019150602081019050602083039250614155565b6001836020036101000a0380198251168184511680821785525050505050509050019150506000604051808303816000865af19150503d80600081146141da576040519150601f19603f3d011682016040523d82523d6000602084013e6141df565b606091505b509150915081801561421f575060008151148061421e575080806020019051602081101561420c57600080fd5b81019080805190602001909291905050505b5b614274576040517f08c379a00000000000000000000000000000000000000000000000000000000081526004018080602001828103825260248152602001806154096024913960400191505060405180910390fd5b505050505050565b60005b60018351038110156144695760008084838151811061429a57fe5b60200260200101518560018501815181106142b157fe5b60200260200101519150915060006142c983836149e8565b50905060008760018601815181106142dd57fe5b602002602001015190506000808373ffffffffffffffffffffffffffffffffffffffff168673ffffffffffffffffffffffffffffffffffffffff161461432557826000614329565b6000835b91509150600060028a510388106143405788614382565b6143817f0000000000000000000000000000000000000000000000000000000000000000878c60028c018151811061437457fe5b6020026020010151613d98565b5b90506143af7f00000000000000000000000000000000000000000000000000000000000000008888613d98565b73ffffffffffffffffffffffffffffffffffffffff16636d9a640a8484846040518463ffffffff1660e01b8152600401808481526020018381526020018273ffffffffffffffffffffffffffffffffffffffff1673ffffffffffffffffffffffffffffffffffffffff1681526020019350505050600060405180830381600087803b15801561443d57600080fd5b505af1158015614451573d6000803e3d6000fd5b5050505050505050505050808060010191505061427f565b50505050565b60008273ffffffffffffffffffffffffffffffffffffffff1682600067ffffffffffffffff811180156144a157600080fd5b506040519080825280601f01601f1916602001820160405280156144d45781602001600182028036833780820191505090505b506040518082805190602001908083835b6020831061450857805182526020820191506020810190506020830392506144e5565b6001836020036101000a03801982511681845116808217855250505050505090500191505060006040518083038185875af1925050503d806000811461456a576040519150601f19603f3d011682016040523d82523d6000602084013e61456f565b606091505b50509050806145c9576040517f08c379a00000000000000000000000000000000000000000000000000000000081526004018080602001828103825260238152602001806153676023913960400191505060405180910390fd5b505050565b6000808411614628576040517f08c379a000000000000000000000000000000000000000000000000000000000815260040180806020018281038252602d81526020018061538a602d913960400191505060405180910390fd5b6000831180156146385750600082115b61468d576040517f08c379a000000000000000000000000000000000000000000000000000000000815260040180806020018281038252602981526020018061533e6029913960400191505060405180910390fd5b60006146b66103e86146a88787614f1390919063ffffffff16565b614f1390919063ffffffff16565b905060006146e16103e56146d3888761514a90919063ffffffff16565b614f1390919063ffffffff16565b905061470060018284816146f157fe5b04614f9990919063ffffffff16565b925050509392505050565b6000808411614765576040517f08c379a00000000000000000000000000000000000000000000000000000000081526004018080602001828103825260268152602001806153b76026913960400191505060405180910390fd5b6000831180156147755750600082115b6147ca576040517f08c379a000000000000000000000000000000000000000000000000000000000815260040180806020018281038252602981526020018061533e6029913960400191505060405180910390fd5b826147de8386614f1390919063ffffffff16565b816147e557fe5b0490509392505050565b600060608473ffffffffffffffffffffffffffffffffffffffff1663a9059cbb8585604051602401808373ffffffffffffffffffffffffffffffffffffffff1673ffffffffffffffffffffffffffffffffffffffff168152602001828152602001925050506040516020818303038152906040529060e01b6020820180517bffffffffffffffffffffffffffffffffffffffffffffffffffffffff83818316178352505050506040518082805190602001908083835b602083106148c857805182526020820191506020810190506020830392506148a5565b6001836020036101000a0380198251168184511680821785525050505050509050019150506000604051808303816000865af19150503d806000811461492a576040519150601f19603f3d011682016040523d82523d6000602084013e61492f565b606091505b509150915081801561496f575060008151148061496e575080806020019051602081101561495c57600080fd5b81019080805190602001909291905050505b5b6149e1576040517f08c379a000000000000000000000000000000000000000000000000000000000815260040180806020018281038252601f8152602001807f5472616e7366657248656c7065723a205452414e534645525f4641494c45440081525060200191505060405180910390fd5b5050505050565b6000808273ffffffffffffffffffffffffffffffffffffffff168473ffffffffffffffffffffffffffffffffffffffff161415614a70576040517f08c379a00000000000000000000000000000000000000000000000000000000081526004018080602001828103825260268152602001806152556026913960400191505060405180910390fd5b8273ffffffffffffffffffffffffffffffffffffffff168473ffffffffffffffffffffffffffffffffffffffff1610614aaa578284614aad565b83835b8092508193505050600073ffffffffffffffffffffffffffffffffffffffff168273ffffffffffffffffffffffffffffffffffffffff161415614b58576040517f08c379a000000000000000000000000000000000000000000000000000000000815260040180806020018281038252601f8152602001807f4b6869646972537761704c6962726172793a205a45524f5f414444524553530081525060200191505060405180910390fd5b9250929050565b600080600073ffffffffffffffffffffffffffffffffffffffff167f000000000000000000000000000000000000000000000000000000000000000073ffffffffffffffffffffffffffffffffffffffff1663e6a439058a8a6040518363ffffffff1660e01b8152600401808373ffffffffffffffffffffffffffffffffffffffff1673ffffffffffffffffffffffffffffffffffffffff1681526020018273ffffffffffffffffffffffffffffffffffffffff1673ffffffffffffffffffffffffffffffffffffffff1681526020019250505060206040518083038186803b158015614c4b57600080fd5b505afa158015614c5f573d6000803e3d6000fd5b505050506040513d6020811015614c7557600080fd5b810190808051906020019092919050505073ffffffffffffffffffffffffffffffffffffffff161415614db2577f000000000000000000000000000000000000000000000000000000000000000073ffffffffffffffffffffffffffffffffffffffff1663c9c6539689896040518363ffffffff1660e01b8152600401808373ffffffffffffffffffffffffffffffffffffffff1673ffffffffffffffffffffffffffffffffffffffff1681526020018273ffffffffffffffffffffffffffffffffffffffff1673ffffffffffffffffffffffffffffffffffffffff16815260200192505050602060405180830381600087803b158015614d7557600080fd5b505af1158015614d89573d6000803e3d6000fd5b505050506040513d6020811015614d9f57600080fd5b8101908080519060200190929190505050505b600080614de07f00000000000000000000000000000000000000000000000000000000000000008b8b615021565b91509150600082148015614df45750600081145b15614e085787878094508195505050614f06565b6000614e1589848461470b565b9050878111614e865785811015614e77576040517f08c379a000000000000000000000000000000000000000000000000000000000815260040180806020018281038252602781526020018061527b6027913960400191505060405180910390fd5b88818095508196505050614f04565b6000614e9389848661470b565b905089811115614e9f57fe5b87811015614ef8576040517f08c379a00000000000000000000000000000000000000000000000000000000081526004018080602001828103825260278152602001806152f66027913960400191505060405180910390fd5b80898096508197505050505b505b5050965096945050505050565b600080831415614f265760009050614f93565b6000828402905082848281614f3757fe5b0414614f8e576040517f08c379a000000000000000000000000000000000000000000000000000000000815260040180806020018281038252602181526020018061531d6021913960400191505060405180910390fd5b809150505b92915050565b600080828401905083811015615017576040517f08c379a000000000000000000000000000000000000000000000000000000000815260040180806020018281038252601b8152602001807f536166654d6174683a206164646974696f6e206f766572666c6f77000000000081525060200191505060405180910390fd5b8091505092915050565b600080600061503085856149e8565b509050600080615041888888613d98565b73ffffffffffffffffffffffffffffffffffffffff16630902f1ac6040518163ffffffff1660e01b815260040160606040518083038186803b15801561508657600080fd5b505afa15801561509a573d6000803e3d6000fd5b505050506040513d60608110156150b057600080fd5b81019080805190602001909291908051906020019092919080519060200190929190505050506dffffffffffffffffffffffffffff1691506dffffffffffffffffffffffffffff1691508273ffffffffffffffffffffffffffffffffffffffff168773ffffffffffffffffffffffffffffffffffffffff1614615134578082615137565b81815b8095508196505050505050935093915050565b600061518c83836040518060400160405280601e81526020017f536166654d6174683a207375627472616374696f6e206f766572666c6f770000815250615194565b905092915050565b6000838311158290615241576040517f08c379a00000000000000000000000000000000000000000000000000000000081526004018080602001828103825283818151815260200191508051906020019080838360005b838110156152065780820151818401526020810190506151eb565b50505050905090810190601f1680156152335780820380516001836020036101000a031916815260200191505b509250505060405180910390fd5b506000838503905080915050939250505056fe4b6869646972537761704c6962726172793a204944454e544943414c5f4144445245535345534b686964697253776170526f757465723a20494e53554646494349454e545f425f414d4f554e544b686964697253776170526f757465723a204558434553534956455f494e5055545f414d4f554e544b686964697253776170526f757465723a20494e53554646494349454e545f4f55545055545f414d4f554e544b686964697253776170526f757465723a20494e53554646494349454e545f415f414d4f554e54536166654d6174683a206d756c7469706c69636174696f6e206f766572666c6f774b6869646972537761704c6962726172793a20494e53554646494349454e545f4c49515549444954595472616e7366657248656c7065723a20424e425f5452414e534645525f4641494c45444b6869646972537761704c6962726172793a20494e53554646494349454e545f4f55545055545f414d4f554e544b6869646972537761704c6962726172793a20494e53554646494349454e545f414d4f554e544b6869646972537761704c6962726172793a20494e53554646494349454e545f494e5055545f414d4f554e545472616e7366657248656c7065723a205452414e534645525f46524f4d5f4641494c4544a26469706673582212209dcaaa3cf950f35614054cdff069d5338925f8069860d49bfe50ab43193c733864736f6c63430006060033",
  "immutableReferences": {
    "3506": [
      {
        "length": 32,
        "start": 4795
      },
      {
        "length": 32,
        "start": 4851
      },
      {
        "length": 32,
        "start": 5240
      },
      {
        "length": 32,
        "start": 5775
      },
      {
        "length": 32,
        "start": 6043
      },
      {
        "length": 32,
        "start": 6641
      },
      {
        "length": 32,
        "start": 6909
      },
      {
        "length": 32,
        "start": 7345
      },
      {
        "length": 32,
        "start": 8107
      },
      {
        "length": 32,
        "start": 8535
      },
      {
        "length": 32,
        "start": 9141
      },
      {
        "length": 32,
        "start": 9406
      },
      {
        "length": 32,
        "start": 10035
      },
      {
        "length": 32,
        "start": 10466
      },
      {
        "length": 32,
        "start": 11542
      },
      {
        "length": 32,
        "start": 12312
      },
      {
        "length": 32,
        "start": 12353
      },
      {
        "length": 32,
        "start": 12764
      },
      {
        "length": 32,
        "start": 13029
      },
      {
        "length": 32,
        "start": 13959
      },
      {
        "length": 32,
        "start": 14412
      },
      {
        "length": 32,
        "start": 17221
      },
      {
        "length": 32,
        "start": 17289
      },
      {
        "length": 32,
        "start": 19324
      },
      {
        "length": 32,
        "start": 19620
      },
      {
        "length": 32,
        "start": 19898
      }
    ],
    "3509": [
      {
        "length": 32,
        "start": 309
      },
      {
        "length": 32,
        "start": 5274
      },
      {
        "length": 32,
        "start": 6399
      },
      {
        "length": 32,
        "start": 7133
      },
      {
        "length": 32,
        "start": 7379
      },
      {
        "length": 32,
        "start": 7870
      },
      {
        "length": 32,
        "start": 8323
      },
      {
        "length": 32,
        "start": 8472
      },
      {
        "length": 32,
        "start": 9641
      },
      {
        "length": 32,
        "start": 9798
      },
      {
        "length": 32,
        "start": 10254
      },
      {
        "length": 32,
        "start": 10403
      },
      {
        "length": 32,
        "start": 11012
      },
      {
        "length": 32,
        "start": 11255
      },
      {
        "length": 32,
        "start": 12522
      },
      {
        "length": 32,
        "start": 13253
      },
      {
        "length": 32,
        "start": 13585
      },
      {
        "length": 32,
        "start": 13647
      },
      {
        "length": 32,
        "start": 14357
      },
      {
        "length": 32,
        "start": 14446
      },
      {
        "length": 32,
        "start": 14498
      },
      {
        "length": 32,
        "start": 14627
      }
    ]
  },
  "source": "pragma solidity =0.6.6;\r\n\r\nimport '@KhidirProject/khidir-swap-core/contracts/interfaces/IKhidirSwapFactory.sol';\r\nimport '@KhidirProject/khidir-swap-lib/contracts/utils/TransferHelper.sol';\r\n\r\nimport './interfaces/IKhidirSwapRouter.sol';\r\nimport './libraries/KhidirSwapLibrary.sol';\r\nimport '@KhidirProject/khidir-swap-lib/contracts/math/SafeMath.sol';\r\nimport '@KhidirProject/khidir-swap-lib/contracts/token/BEP20/IBEP20.sol';\r\nimport './interfaces/IWBNB.sol';\r\n\r\ncontract KhidirSwapRouter is IKhidirSwapRouter {\r\n    using SafeMath for uint256;\r\n    address public immutable override factory;\r\n    address public immutable override WBNB;\r\n\r\n    modifier ensure(uint256 deadline) {\r\n        require(deadline >= block.timestamp, 'KhidirSwapRouter: EXPIRED');\r\n        _;\r\n    }\r\n\r\n    constructor(address _factory, address _WBNB) public {\r\n        factory = _factory;\r\n        WBNB = _WBNB;\r\n    }\r\n\r\n    receive() external payable {\r\n        assert(msg.sender == WBNB); // only accept BNB via fallback from the WBNB contract\r\n    }\r\n\r\n    // **** ADD LIQUIDITY ****\r\n    function _addLiquidity(\r\n        address tokenA,\r\n        address tokenB,\r\n        uint256 amountADesired,\r\n        uint256 amountBDesired,\r\n        uint256 amountAMin,\r\n        uint256 amountBMin\r\n    ) internal virtual returns (uint256 amountA, uint256 amountB) {\r\n        // create the pair if it doesn't exist yet\r\n        if (IKhidirSwapFactory(factory).getPair(tokenA, tokenB) == address(0)) {\r\n            IKhidirSwapFactory(factory).createPair(tokenA, tokenB);\r\n        }\r\n        (uint256 reserveA, uint256 reserveB) = KhidirSwapLibrary.getReserves(factory, tokenA, tokenB);\r\n        if (reserveA == 0 && reserveB == 0) {\r\n            (amountA, amountB) = (amountADesired, amountBDesired);\r\n        } else {\r\n            uint256 amountBOptimal = KhidirSwapLibrary.quote(amountADesired, reserveA, reserveB);\r\n            if (amountBOptimal <= amountBDesired) {\r\n                require(amountBOptimal >= amountBMin, 'KhidirSwapRouter: INSUFFICIENT_B_AMOUNT');\r\n                (amountA, amountB) = (amountADesired, amountBOptimal);\r\n            } else {\r\n                uint256 amountAOptimal = KhidirSwapLibrary.quote(amountBDesired, reserveB, reserveA);\r\n                assert(amountAOptimal <= amountADesired);\r\n                require(amountAOptimal >= amountAMin, 'KhidirSwapRouter: INSUFFICIENT_A_AMOUNT');\r\n                (amountA, amountB) = (amountAOptimal, amountBDesired);\r\n            }\r\n        }\r\n    }\r\n\r\n    function addLiquidity(\r\n        address tokenA,\r\n        address tokenB,\r\n        uint256 amountADesired,\r\n        uint256 amountBDesired,\r\n        uint256 amountAMin,\r\n        uint256 amountBMin,\r\n        address to,\r\n        uint256 deadline\r\n    )\r\n        external\r\n        virtual\r\n        override\r\n        ensure(deadline)\r\n        returns (\r\n            uint256 amountA,\r\n            uint256 amountB,\r\n            uint256 liquidity\r\n        )\r\n    {\r\n        (amountA, amountB) = _addLiquidity(tokenA, tokenB, amountADesired, amountBDesired, amountAMin, amountBMin);\r\n        address pair = KhidirSwapLibrary.pairFor(factory, tokenA, tokenB);\r\n        TransferHelper.safeTransferFrom(tokenA, msg.sender, pair, amountA);\r\n        TransferHelper.safeTransferFrom(tokenB, msg.sender, pair, amountB);\r\n        liquidity = IKhidirSwapPair(pair).mint(to);\r\n    }\r\n\r\n    function addLiquidityBNB(\r\n        address token,\r\n        uint256 amountTokenDesired,\r\n        uint256 amountTokenMin,\r\n        uint256 amountBNBMin,\r\n        address to,\r\n        uint256 deadline\r\n    )\r\n        external\r\n        virtual\r\n        override\r\n        payable\r\n        ensure(deadline)\r\n        returns (\r\n            uint256 amountToken,\r\n            uint256 amountBNB,\r\n            uint256 liquidity\r\n        )\r\n    {\r\n        (amountToken, amountBNB) = _addLiquidity(\r\n            token,\r\n            WBNB,\r\n            amountTokenDesired,\r\n            msg.value,\r\n            amountTokenMin,\r\n            amountBNBMin\r\n        );\r\n        address pair = KhidirSwapLibrary.pairFor(factory, token, WBNB);\r\n        TransferHelper.safeTransferFrom(token, msg.sender, pair, amountToken);\r\n        IWBNB(WBNB).deposit{value: amountBNB}();\r\n        assert(IWBNB(WBNB).transfer(pair, amountBNB));\r\n        liquidity = IKhidirSwapPair(pair).mint(to);\r\n        // refund dust bnb, if any\r\n        if (msg.value > amountBNB) TransferHelper.safeTransferBNB(msg.sender, msg.value - amountBNB);\r\n    }\r\n\r\n    // **** REMOVE LIQUIDITY ****\r\n    function removeLiquidity(\r\n        address tokenA,\r\n        address tokenB,\r\n        uint256 liquidity,\r\n        uint256 amountAMin,\r\n        uint256 amountBMin,\r\n        address to,\r\n        uint256 deadline\r\n    ) public virtual override ensure(deadline) returns (uint256 amountA, uint256 amountB) {\r\n        address pair = KhidirSwapLibrary.pairFor(factory, tokenA, tokenB);\r\n        IKhidirSwapPair(pair).transferFrom(msg.sender, pair, liquidity); // send liquidity to pair\r\n        (uint256 amount0, uint256 amount1) = IKhidirSwapPair(pair).burn(to);\r\n        (address token0, ) = KhidirSwapLibrary.sortTokens(tokenA, tokenB);\r\n        (amountA, amountB) = tokenA == token0 ? (amount0, amount1) : (amount1, amount0);\r\n        require(amountA >= amountAMin, 'KhidirSwapRouter: INSUFFICIENT_A_AMOUNT');\r\n        require(amountB >= amountBMin, 'KhidirSwapRouter: INSUFFICIENT_B_AMOUNT');\r\n    }\r\n\r\n    function removeLiquidityBNB(\r\n        address token,\r\n        uint256 liquidity,\r\n        uint256 amountTokenMin,\r\n        uint256 amountBNBMin,\r\n        address to,\r\n        uint256 deadline\r\n    ) public virtual override ensure(deadline) returns (uint256 amountToken, uint256 amountBNB) {\r\n        (amountToken, amountBNB) = removeLiquidity(\r\n            token,\r\n            WBNB,\r\n            liquidity,\r\n            amountTokenMin,\r\n            amountBNBMin,\r\n            address(this),\r\n            deadline\r\n        );\r\n        TransferHelper.safeTransfer(token, to, amountToken);\r\n        IWBNB(WBNB).withdraw(amountBNB);\r\n        TransferHelper.safeTransferBNB(to, amountBNB);\r\n    }\r\n\r\n    function removeLiquidityWithPermit(\r\n        address tokenA,\r\n        address tokenB,\r\n        uint256 liquidity,\r\n        uint256 amountAMin,\r\n        uint256 amountBMin,\r\n        address to,\r\n        uint256 deadline,\r\n        bool approveMax,\r\n        uint8 v,\r\n        bytes32 r,\r\n        bytes32 s\r\n    ) external virtual override returns (uint256 amountA, uint256 amountB) {\r\n        address pair = KhidirSwapLibrary.pairFor(factory, tokenA, tokenB);\r\n        uint256 value = approveMax ? uint256(-1) : liquidity;\r\n        IKhidirSwapPair(pair).permit(msg.sender, address(this), value, deadline, v, r, s);\r\n        (amountA, amountB) = removeLiquidity(tokenA, tokenB, liquidity, amountAMin, amountBMin, to, deadline);\r\n    }\r\n\r\n    function removeLiquidityBNBWithPermit(\r\n        address token,\r\n        uint256 liquidity,\r\n        uint256 amountTokenMin,\r\n        uint256 amountBNBMin,\r\n        address to,\r\n        uint256 deadline,\r\n        bool approveMax,\r\n        uint8 v,\r\n        bytes32 r,\r\n        bytes32 s\r\n    ) external virtual override returns (uint256 amountToken, uint256 amountBNB) {\r\n        address pair = KhidirSwapLibrary.pairFor(factory, token, WBNB);\r\n        uint256 value = approveMax ? uint256(-1) : liquidity;\r\n        IKhidirSwapPair(pair).permit(msg.sender, address(this), value, deadline, v, r, s);\r\n        (amountToken, amountBNB) = removeLiquidityBNB(token, liquidity, amountTokenMin, amountBNBMin, to, deadline);\r\n    }\r\n\r\n    // **** REMOVE LIQUIDITY (supporting fee-on-transfer tokens) ****\r\n    function removeLiquidityBNBSupportingFeeOnTransferTokens(\r\n        address token,\r\n        uint256 liquidity,\r\n        uint256 amountTokenMin,\r\n        uint256 amountBNBMin,\r\n        address to,\r\n        uint256 deadline\r\n    ) public virtual override ensure(deadline) returns (uint256 amountBNB) {\r\n        (, amountBNB) = removeLiquidity(token, WBNB, liquidity, amountTokenMin, amountBNBMin, address(this), deadline);\r\n        TransferHelper.safeTransfer(token, to, IBEP20(token).balanceOf(address(this)));\r\n        IWBNB(WBNB).withdraw(amountBNB);\r\n        TransferHelper.safeTransferBNB(to, amountBNB);\r\n    }\r\n\r\n    function removeLiquidityBNBWithPermitSupportingFeeOnTransferTokens(\r\n        address token,\r\n        uint256 liquidity,\r\n        uint256 amountTokenMin,\r\n        uint256 amountBNBMin,\r\n        address to,\r\n        uint256 deadline,\r\n        bool approveMax,\r\n        uint8 v,\r\n        bytes32 r,\r\n        bytes32 s\r\n    ) external virtual override returns (uint256 amountBNB) {\r\n        address pair = KhidirSwapLibrary.pairFor(factory, token, WBNB);\r\n        uint256 value = approveMax ? uint256(-1) : liquidity;\r\n        IKhidirSwapPair(pair).permit(msg.sender, address(this), value, deadline, v, r, s);\r\n        amountBNB = removeLiquidityBNBSupportingFeeOnTransferTokens(\r\n            token,\r\n            liquidity,\r\n            amountTokenMin,\r\n            amountBNBMin,\r\n            to,\r\n            deadline\r\n        );\r\n    }\r\n\r\n    // **** SWAP ****\r\n    // requires the initial amount to have already been sent to the first pair\r\n    function _swap(\r\n        uint256[] memory amounts,\r\n        address[] memory path,\r\n        address _to\r\n    ) internal virtual {\r\n        for (uint256 i; i < path.length - 1; i++) {\r\n            (address input, address output) = (path[i], path[i + 1]);\r\n            (address token0, ) = KhidirSwapLibrary.sortTokens(input, output);\r\n            uint256 amountOut = amounts[i + 1];\r\n            (uint256 amount0Out, uint256 amount1Out) = input == token0\r\n                ? (uint256(0), amountOut)\r\n                : (amountOut, uint256(0));\r\n            address to = i < path.length - 2 ? KhidirSwapLibrary.pairFor(factory, output, path[i + 2]) : _to;\r\n            IKhidirSwapPair(KhidirSwapLibrary.pairFor(factory, input, output)).swap(amount0Out, amount1Out, to);\r\n        }\r\n    }\r\n\r\n    function swapExactTokensForTokens(\r\n        uint256 amountIn,\r\n        uint256 amountOutMin,\r\n        address[] calldata path,\r\n        address to,\r\n        uint256 deadline\r\n    ) external virtual override ensure(deadline) returns (uint256[] memory amounts) {\r\n        amounts = KhidirSwapLibrary.getAmountsOut(factory, amountIn, path);\r\n        require(amounts[amounts.length - 1] >= amountOutMin, 'KhidirSwapRouter: INSUFFICIENT_OUTPUT_AMOUNT');\r\n        TransferHelper.safeTransferFrom(\r\n            path[0],\r\n            msg.sender,\r\n            KhidirSwapLibrary.pairFor(factory, path[0], path[1]),\r\n            amounts[0]\r\n        );\r\n        _swap(amounts, path, to);\r\n    }\r\n\r\n    function swapTokensForExactTokens(\r\n        uint256 amountOut,\r\n        uint256 amountInMax,\r\n        address[] calldata path,\r\n        address to,\r\n        uint256 deadline\r\n    ) external virtual override ensure(deadline) returns (uint256[] memory amounts) {\r\n        amounts = KhidirSwapLibrary.getAmountsIn(factory, amountOut, path);\r\n        require(amounts[0] <= amountInMax, 'KhidirSwapRouter: EXCESSIVE_INPUT_AMOUNT');\r\n        TransferHelper.safeTransferFrom(\r\n            path[0],\r\n            msg.sender,\r\n            KhidirSwapLibrary.pairFor(factory, path[0], path[1]),\r\n            amounts[0]\r\n        );\r\n        _swap(amounts, path, to);\r\n    }\r\n\r\n    function swapExactBNBForTokens(\r\n        uint256 amountOutMin,\r\n        address[] calldata path,\r\n        address to,\r\n        uint256 deadline\r\n    ) external virtual override payable ensure(deadline) returns (uint256[] memory amounts) {\r\n        require(path[0] == WBNB, 'KhidirSwapRouter: INVALID_PATH');\r\n        amounts = KhidirSwapLibrary.getAmountsOut(factory, msg.value, path);\r\n        require(amounts[amounts.length - 1] >= amountOutMin, 'KhidirSwapRouter: INSUFFICIENT_OUTPUT_AMOUNT');\r\n        IWBNB(WBNB).deposit{value: amounts[0]}();\r\n        assert(IWBNB(WBNB).transfer(KhidirSwapLibrary.pairFor(factory, path[0], path[1]), amounts[0]));\r\n        _swap(amounts, path, to);\r\n    }\r\n\r\n    function swapTokensForExactBNB(\r\n        uint256 amountOut,\r\n        uint256 amountInMax,\r\n        address[] calldata path,\r\n        address to,\r\n        uint256 deadline\r\n    ) external virtual override ensure(deadline) returns (uint256[] memory amounts) {\r\n        require(path[path.length - 1] == WBNB, 'KhidirSwapRouter: INVALID_PATH');\r\n        amounts = KhidirSwapLibrary.getAmountsIn(factory, amountOut, path);\r\n        require(amounts[0] <= amountInMax, 'KhidirSwapRouter: EXCESSIVE_INPUT_AMOUNT');\r\n        TransferHelper.safeTransferFrom(\r\n            path[0],\r\n            msg.sender,\r\n            KhidirSwapLibrary.pairFor(factory, path[0], path[1]),\r\n            amounts[0]\r\n        );\r\n        _swap(amounts, path, address(this));\r\n        IWBNB(WBNB).withdraw(amounts[amounts.length - 1]);\r\n        TransferHelper.safeTransferBNB(to, amounts[amounts.length - 1]);\r\n    }\r\n\r\n    function swapExactTokensForBNB(\r\n        uint256 amountIn,\r\n        uint256 amountOutMin,\r\n        address[] calldata path,\r\n        address to,\r\n        uint256 deadline\r\n    ) external virtual override ensure(deadline) returns (uint256[] memory amounts) {\r\n        require(path[path.length - 1] == WBNB, 'KhidirSwapRouter: INVALID_PATH');\r\n        amounts = KhidirSwapLibrary.getAmountsOut(factory, amountIn, path);\r\n        require(amounts[amounts.length - 1] >= amountOutMin, 'KhidirSwapRouter: INSUFFICIENT_OUTPUT_AMOUNT');\r\n        TransferHelper.safeTransferFrom(\r\n            path[0],\r\n            msg.sender,\r\n            KhidirSwapLibrary.pairFor(factory, path[0], path[1]),\r\n            amounts[0]\r\n        );\r\n        _swap(amounts, path, address(this));\r\n        IWBNB(WBNB).withdraw(amounts[amounts.length - 1]);\r\n        TransferHelper.safeTransferBNB(to, amounts[amounts.length - 1]);\r\n    }\r\n\r\n    function swapBNBForExactTokens(\r\n        uint256 amountOut,\r\n        address[] calldata path,\r\n        address to,\r\n        uint256 deadline\r\n    ) external virtual override payable ensure(deadline) returns (uint256[] memory amounts) {\r\n        require(path[0] == WBNB, 'KhidirSwapRouter: INVALID_PATH');\r\n        amounts = KhidirSwapLibrary.getAmountsIn(factory, amountOut, path);\r\n        require(amounts[0] <= msg.value, 'KhidirSwapRouter: EXCESSIVE_INPUT_AMOUNT');\r\n        IWBNB(WBNB).deposit{value: amounts[0]}();\r\n        assert(IWBNB(WBNB).transfer(KhidirSwapLibrary.pairFor(factory, path[0], path[1]), amounts[0]));\r\n        _swap(amounts, path, to);\r\n        // refund dust bnb, if any\r\n        if (msg.value > amounts[0]) TransferHelper.safeTransferBNB(msg.sender, msg.value - amounts[0]);\r\n    }\r\n\r\n    // **** SWAP (supporting fee-on-transfer tokens) ****\r\n    // requires the initial amount to have already been sent to the first pair\r\n    // function _swapSupportingFeeOnTransferTokens(address[] memory path, address _to) internal virtual {\r\n    //     for (uint256 i; i < path.length - 1; i++) {\r\n    //         (address input, address output) = (path[i], path[i + 1]);\r\n    //         (address token0, ) = KhidirSwapLibrary.sortTokens(input, output);\r\n    //         IKhidirSwapPair pair = IKhidirSwapPair(KhidirSwapLibrary.pairFor(factory, input, output));\r\n    //         uint256 amountInput;\r\n    //         uint256 amountOutput;\r\n    //         {\r\n    //             // scope to avoid stack too deep errors\r\n    //             (uint256 reserve0, uint256 reserve1, ) = pair.getReserves();\r\n    //             (uint256 reserveInput, uint256 reserveOutput) = input == token0\r\n    //                 ? (reserve0, reserve1)\r\n    //                 : (reserve1, reserve0);\r\n    //             amountInput = IBEP20(input).balanceOf(address(pair)).sub(reserveInput);\r\n    //             amountOutput = KhidirSwapLibrary.getAmountOut(amountInput, reserveInput, reserveOutput);\r\n    //         }\r\n    //         (uint256 amount0Out, uint256 amount1Out) = input == token0\r\n    //             ? (uint256(0), amountOutput)\r\n    //             : (amountOutput, uint256(0));\r\n    //         address to = i < path.length - 2 ? KhidirSwapLibrary.pairFor(factory, output, path[i + 2]) : _to;\r\n    //         pair.swap(amount0Out, amount1Out, to);\r\n    //     }\r\n    // }\r\n\r\n    // function swapExactTokensForTokensSupportingFeeOnTransferTokens(\r\n    //     uint256 amountIn,\r\n    //     uint256 amountOutMin,\r\n    //     address[] calldata path,\r\n    //     address to,\r\n    //     uint256 deadline\r\n    // ) external virtual override ensure(deadline) {\r\n    //     TransferHelper.safeTransferFrom(\r\n    //         path[0],\r\n    //         msg.sender,\r\n    //         KhidirSwapLibrary.pairFor(factory, path[0], path[1]),\r\n    //         amountIn\r\n    //     );\r\n    //     uint256 balanceBefore = IBEP20(path[path.length - 1]).balanceOf(to);\r\n    //     _swapSupportingFeeOnTransferTokens(path, to);\r\n    //     require(\r\n    //         IBEP20(path[path.length - 1]).balanceOf(to).sub(balanceBefore) >= amountOutMin,\r\n    //         'KhidirSwapRouter: INSUFFICIENT_OUTPUT_AMOUNT'\r\n    //     );\r\n    // }\r\n\r\n    // function swapExactBNBForTokensSupportingFeeOnTransferTokens(\r\n    //     uint256 amountOutMin,\r\n    //     address[] calldata path,\r\n    //     address to,\r\n    //     uint256 deadline\r\n    // ) external virtual override payable ensure(deadline) {\r\n    //     require(path[0] == WBNB, 'KhidirSwapRouter: INVALID_PATH');\r\n    //     uint256 amountIn = msg.value;\r\n    //     IWBNB(WBNB).deposit{value: amountIn}();\r\n    //     assert(IWBNB(WBNB).transfer(KhidirSwapLibrary.pairFor(factory, path[0], path[1]), amountIn));\r\n    //     uint256 balanceBefore = IBEP20(path[path.length - 1]).balanceOf(to);\r\n    //     _swapSupportingFeeOnTransferTokens(path, to);\r\n    //     require(\r\n    //         IBEP20(path[path.length - 1]).balanceOf(to).sub(balanceBefore) >= amountOutMin,\r\n    //         'KhidirSwapRouter: INSUFFICIENT_OUTPUT_AMOUNT'\r\n    //     );\r\n    // }\r\n\r\n    // function swapExactTokensForBNBSupportingFeeOnTransferTokens(\r\n    //     uint256 amountIn,\r\n    //     uint256 amountOutMin,\r\n    //     address[] calldata path,\r\n    //     address to,\r\n    //     uint256 deadline\r\n    // ) external virtual override ensure(deadline) {\r\n    //     require(path[path.length - 1] == WBNB, 'KhidirSwapRouter: INVALID_PATH');\r\n    //     TransferHelper.safeTransferFrom(\r\n    //         path[0],\r\n    //         msg.sender,\r\n    //         KhidirSwapLibrary.pairFor(factory, path[0], path[1]),\r\n    //         amountIn\r\n    //     );\r\n    //     _swapSupportingFeeOnTransferTokens(path, address(this));\r\n    //     uint256 amountOut = IBEP20(WBNB).balanceOf(address(this));\r\n    //     require(amountOut >= amountOutMin, 'KhidirSwapRouter: INSUFFICIENT_OUTPUT_AMOUNT');\r\n    //     IWBNB(WBNB).withdraw(amountOut);\r\n    //     TransferHelper.safeTransferBNB(to, amountOut);\r\n    // }\r\n\r\n    // **** LIBRARY FUNCTIONS ****\r\n    function quote(\r\n        uint256 amountA,\r\n        uint256 reserveA,\r\n        uint256 reserveB\r\n    ) public virtual override pure returns (uint256 amountB) {\r\n        return KhidirSwapLibrary.quote(amountA, reserveA, reserveB);\r\n    }\r\n\r\n    function getAmountOut(\r\n        uint256 amountIn,\r\n        uint256 reserveIn,\r\n        uint256 reserveOut\r\n    ) public virtual override pure returns (uint256 amountOut) {\r\n        return KhidirSwapLibrary.getAmountOut(amountIn, reserveIn, reserveOut);\r\n    }\r\n\r\n    function getAmountIn(\r\n        uint256 amountOut,\r\n        uint256 reserveIn,\r\n        uint256 reserveOut\r\n    ) public virtual override pure returns (uint256 amountIn) {\r\n        return KhidirSwapLibrary.getAmountIn(amountOut, reserveIn, reserveOut);\r\n    }\r\n\r\n    function getAmountsOut(uint256 amountIn, address[] memory path)\r\n        public\r\n        virtual\r\n        override\r\n        view\r\n        returns (uint256[] memory amounts)\r\n    {\r\n        return KhidirSwapLibrary.getAmountsOut(factory, amountIn, path);\r\n    }\r\n\r\n    function getAmountsIn(uint256 amountOut, address[] memory path)\r\n        public\r\n        virtual\r\n        override\r\n        view\r\n        returns (uint256[] memory amounts)\r\n    {\r\n        return KhidirSwapLibrary.getAmountsIn(factory, amountOut, path);\r\n    }\r\n}\r\n",
  "sourcePath": "D:\\GITHUBKHIDIRSWAP2\\khidir-swap-periphery\\contracts\\KhidirSwapRouter.sol",
  "compiler": {
    "name": "solc",
    "version": "0.6.6+commit.6c089d02.Emscripten.clang"
  },
  "schemaVersion": "3.4.3",
  "updatedAt": "2021-09-10T04:02:10.174Z",
  "networkType": "ethereum",
  "devdoc": {
    "methods": {}
  },
  "userdoc": {
    "methods": {}
  }
}