{
  "contractName": "RouterEventEmitter",
  "abi": [
    {
      "anonymous": false,
      "inputs": [
        {
          "indexed": false,
          "internalType": "uint256[]",
          "name": "amounts",
          "type": "uint256[]"
        }
      ],
      "name": "Amounts",
      "type": "event"
    },
    {
      "stateMutability": "payable",
      "type": "receive"
    },
    {
      "inputs": [
        {
          "internalType": "address",
          "name": "router",
          "type": "address"
        },
        {
          "internalType": "uint256",
          "name": "amountIn",
          "type": "uint256"
        },
        {
          "internalType": "uint256",
          "name": "amountOutMin",
          "type": "uint256"
        },
        {
          "internalType": "address[]",
          "name": "path",
          "type": "address[]"
        },
        {
          "internalType": "address",
          "name": "to",
          "type": "address"
        },
        {
          "internalType": "uint256",
          "name": "deadline",
          "type": "uint256"
        }
      ],
      "name": "swapExactTokensForTokens",
      "outputs": [],
      "stateMutability": "nonpayable",
      "type": "function"
    },
    {
      "inputs": [
        {
          "internalType": "address",
          "name": "router",
          "type": "address"
        },
        {
          "internalType": "uint256",
          "name": "amountOut",
          "type": "uint256"
        },
        {
          "internalType": "uint256",
          "name": "amountInMax",
          "type": "uint256"
        },
        {
          "internalType": "address[]",
          "name": "path",
          "type": "address[]"
        },
        {
          "internalType": "address",
          "name": "to",
          "type": "address"
        },
        {
          "internalType": "uint256",
          "name": "deadline",
          "type": "uint256"
        }
      ],
      "name": "swapTokensForExactTokens",
      "outputs": [],
      "stateMutability": "nonpayable",
      "type": "function"
    },
    {
      "inputs": [
        {
          "internalType": "address",
          "name": "router",
          "type": "address"
        },
        {
          "internalType": "uint256",
          "name": "amountOutMin",
          "type": "uint256"
        },
        {
          "internalType": "address[]",
          "name": "path",
          "type": "address[]"
        },
        {
          "internalType": "address",
          "name": "to",
          "type": "address"
        },
        {
          "internalType": "uint256",
          "name": "deadline",
          "type": "uint256"
        }
      ],
      "name": "swapExactBNBForTokens",
      "outputs": [],
      "stateMutability": "payable",
      "type": "function"
    },
    {
      "inputs": [
        {
          "internalType": "address",
          "name": "router",
          "type": "address"
        },
        {
          "internalType": "uint256",
          "name": "amountOut",
          "type": "uint256"
        },
        {
          "internalType": "uint256",
          "name": "amountInMax",
          "type": "uint256"
        },
        {
          "internalType": "address[]",
          "name": "path",
          "type": "address[]"
        },
        {
          "internalType": "address",
          "name": "to",
          "type": "address"
        },
        {
          "internalType": "uint256",
          "name": "deadline",
          "type": "uint256"
        }
      ],
      "name": "swapTokensForExactBNB",
      "outputs": [],
      "stateMutability": "nonpayable",
      "type": "function"
    },
    {
      "inputs": [
        {
          "internalType": "address",
          "name": "router",
          "type": "address"
        },
        {
          "internalType": "uint256",
          "name": "amountIn",
          "type": "uint256"
        },
        {
          "internalType": "uint256",
          "name": "amountOutMin",
          "type": "uint256"
        },
        {
          "internalType": "address[]",
          "name": "path",
          "type": "address[]"
        },
        {
          "internalType": "address",
          "name": "to",
          "type": "address"
        },
        {
          "internalType": "uint256",
          "name": "deadline",
          "type": "uint256"
        }
      ],
      "name": "swapExactTokensForBNB",
      "outputs": [],
      "stateMutability": "nonpayable",
      "type": "function"
    },
    {
      "inputs": [
        {
          "internalType": "address",
          "name": "router",
          "type": "address"
        },
        {
          "internalType": "uint256",
          "name": "amountOut",
          "type": "uint256"
        },
        {
          "internalType": "address[]",
          "name": "path",
          "type": "address[]"
        },
        {
          "internalType": "address",
          "name": "to",
          "type": "address"
        },
        {
          "internalType": "uint256",
          "name": "deadline",
          "type": "uint256"
        }
      ],
      "name": "swapBNBForExactTokens",
      "outputs": [],
      "stateMutability": "payable",
      "type": "function"
    }
  ],
  "bytecode": "0x608060405234801561001057600080fd5b506116e7806100206000396000f3fe6080604052600436106100595760003560e01c806322b5841014610065578063375734d91461014957806366dc44da1461022d57806384a0dcbf14610311578063d562e06a146103de578063f443115b146104ab57610060565b3661006057005b600080fd5b34801561007157600080fd5b50610147600480360360c081101561008857600080fd5b81019080803573ffffffffffffffffffffffffffffffffffffffff1690602001909291908035906020019092919080359060200190929190803590602001906401000000008111156100d957600080fd5b8201836020820111156100eb57600080fd5b8035906020019184602083028401116401000000008311171561010d57600080fd5b9091929391929390803573ffffffffffffffffffffffffffffffffffffffff1690602001909291908035906020019092919050505061058f565b005b34801561015557600080fd5b5061022b600480360360c081101561016c57600080fd5b81019080803573ffffffffffffffffffffffffffffffffffffffff1690602001909291908035906020019092919080359060200190929190803590602001906401000000008111156101bd57600080fd5b8201836020820111156101cf57600080fd5b803590602001918460208302840111640100000000831117156101f157600080fd5b9091929391929390803573ffffffffffffffffffffffffffffffffffffffff1690602001909291908035906020019092919050505061086d565b005b34801561023957600080fd5b5061030f600480360360c081101561025057600080fd5b81019080803573ffffffffffffffffffffffffffffffffffffffff1690602001909291908035906020019092919080359060200190929190803590602001906401000000008111156102a157600080fd5b8201836020820111156102b357600080fd5b803590602001918460208302840111640100000000831117156102d557600080fd5b9091929391929390803573ffffffffffffffffffffffffffffffffffffffff16906020019092919080359060200190929190505050610b4b565b005b6103dc600480360360a081101561032757600080fd5b81019080803573ffffffffffffffffffffffffffffffffffffffff169060200190929190803590602001909291908035906020019064010000000081111561036e57600080fd5b82018360208201111561038057600080fd5b803590602001918460208302840111640100000000831117156103a257600080fd5b9091929391929390803573ffffffffffffffffffffffffffffffffffffffff16906020019092919080359060200190929190505050610e29565b005b6104a9600480360360a08110156103f457600080fd5b81019080803573ffffffffffffffffffffffffffffffffffffffff169060200190929190803590602001909291908035906020019064010000000081111561043b57600080fd5b82018360208201111561044d57600080fd5b8035906020019184602083028401116401000000008311171561046f57600080fd5b9091929391929390803573ffffffffffffffffffffffffffffffffffffffff169060200190929190803590602001909291905050506110fe565b005b3480156104b757600080fd5b5061058d600480360360c08110156104ce57600080fd5b81019080803573ffffffffffffffffffffffffffffffffffffffff16906020019092919080359060200190929190803590602001909291908035906020019064010000000081111561051f57600080fd5b82018360208201111561053157600080fd5b8035906020019184602083028401116401000000008311171561055357600080fd5b9091929391929390803573ffffffffffffffffffffffffffffffffffffffff169060200190929190803590602001909291905050506113d3565b005b600060608873ffffffffffffffffffffffffffffffffffffffff16638803dbee60e01b89898989898960405160240180878152602001868152602001806020018473ffffffffffffffffffffffffffffffffffffffff1673ffffffffffffffffffffffffffffffffffffffff1681526020018381526020018281038252868682818152602001925060200280828437600081840152601f19601f820116905080830192505050975050505050505050604051602081830303815290604052907bffffffffffffffffffffffffffffffffffffffffffffffffffffffff19166020820180517bffffffffffffffffffffffffffffffffffffffffffffffffffffffff83818316178352505050506040518082805190602001908083835b602083106106ce57805182526020820191506020810190506020830392506106ab565b6001836020036101000a038019825116818451168082178552505050505050905001915050600060405180830381855af49150503d806000811461072e576040519150601f19603f3d011682016040523d82523d6000602084013e610733565b606091505b50915091508161073f57fe5b7f4cc17991e3610e3400e74a8306aa421daaee1e3446fa22b490604610999e10b381806020019051602081101561077557600080fd5b810190808051604051939291908464010000000082111561079557600080fd5b838201915060208201858111156107ab57600080fd5b82518660208202830111640100000000821117156107c857600080fd5b8083526020830192505050908051906020019060200280838360005b838110156107ff5780820151818401526020810190506107e4565b505050509050016040525050506040518080602001828103825283818151815260200191508051906020019060200280838360005b8381101561084f578082015181840152602081019050610834565b505050509050019250505060405180910390a1505050505050505050565b600060608873ffffffffffffffffffffffffffffffffffffffff166338ed173960e01b89898989898960405160240180878152602001868152602001806020018473ffffffffffffffffffffffffffffffffffffffff1673ffffffffffffffffffffffffffffffffffffffff1681526020018381526020018281038252868682818152602001925060200280828437600081840152601f19601f820116905080830192505050975050505050505050604051602081830303815290604052907bffffffffffffffffffffffffffffffffffffffffffffffffffffffff19166020820180517bffffffffffffffffffffffffffffffffffffffffffffffffffffffff83818316178352505050506040518082805190602001908083835b602083106109ac5780518252602082019150602081019050602083039250610989565b6001836020036101000a038019825116818451168082178552505050505050905001915050600060405180830381855af49150503d8060008114610a0c576040519150601f19603f3d011682016040523d82523d6000602084013e610a11565b606091505b509150915081610a1d57fe5b7f4cc17991e3610e3400e74a8306aa421daaee1e3446fa22b490604610999e10b3818060200190516020811015610a5357600080fd5b8101908080516040519392919084640100000000821115610a7357600080fd5b83820191506020820185811115610a8957600080fd5b8251866020820283011164010000000082111715610aa657600080fd5b8083526020830192505050908051906020019060200280838360005b83811015610add578082015181840152602081019050610ac2565b505050509050016040525050506040518080602001828103825283818151815260200191508051906020019060200280838360005b83811015610b2d578082015181840152602081019050610b12565b505050509050019250505060405180910390a1505050505050505050565b600060608873ffffffffffffffffffffffffffffffffffffffff1663d67b571e60e01b89898989898960405160240180878152602001868152602001806020018473ffffffffffffffffffffffffffffffffffffffff1673ffffffffffffffffffffffffffffffffffffffff1681526020018381526020018281038252868682818152602001925060200280828437600081840152601f19601f820116905080830192505050975050505050505050604051602081830303815290604052907bffffffffffffffffffffffffffffffffffffffffffffffffffffffff19166020820180517bffffffffffffffffffffffffffffffffffffffffffffffffffffffff83818316178352505050506040518082805190602001908083835b60208310610c8a5780518252602082019150602081019050602083039250610c67565b6001836020036101000a038019825116818451168082178552505050505050905001915050600060405180830381855af49150503d8060008114610cea576040519150601f19603f3d011682016040523d82523d6000602084013e610cef565b606091505b509150915081610cfb57fe5b7f4cc17991e3610e3400e74a8306aa421daaee1e3446fa22b490604610999e10b3818060200190516020811015610d3157600080fd5b8101908080516040519392919084640100000000821115610d5157600080fd5b83820191506020820185811115610d6757600080fd5b8251866020820283011164010000000082111715610d8457600080fd5b8083526020830192505050908051906020019060200280838360005b83811015610dbb578082015181840152602081019050610da0565b505050509050016040525050506040518080602001828103825283818151815260200191508051906020019060200280838360005b83811015610e0b578082015181840152602081019050610df0565b505050509050019250505060405180910390a1505050505050505050565b600060608773ffffffffffffffffffffffffffffffffffffffff16638332a96360e01b888888888860405160240180868152602001806020018473ffffffffffffffffffffffffffffffffffffffff1673ffffffffffffffffffffffffffffffffffffffff1681526020018381526020018281038252868682818152602001925060200280828437600081840152601f19601f8201169050808301925050509650505050505050604051602081830303815290604052907bffffffffffffffffffffffffffffffffffffffffffffffffffffffff19166020820180517bffffffffffffffffffffffffffffffffffffffffffffffffffffffff83818316178352505050506040518082805190602001908083835b60208310610f605780518252602082019150602081019050602083039250610f3d565b6001836020036101000a038019825116818451168082178552505050505050905001915050600060405180830381855af49150503d8060008114610fc0576040519150601f19603f3d011682016040523d82523d6000602084013e610fc5565b606091505b509150915081610fd157fe5b7f4cc17991e3610e3400e74a8306aa421daaee1e3446fa22b490604610999e10b381806020019051602081101561100757600080fd5b810190808051604051939291908464010000000082111561102757600080fd5b8382019150602082018581111561103d57600080fd5b825186602082028301116401000000008211171561105a57600080fd5b8083526020830192505050908051906020019060200280838360005b83811015611091578082015181840152602081019050611076565b505050509050016040525050506040518080602001828103825283818151815260200191508051906020019060200280838360005b838110156110e15780820151818401526020810190506110c6565b505050509050019250505060405180910390a15050505050505050565b600060608773ffffffffffffffffffffffffffffffffffffffff16639cf6891160e01b888888888860405160240180868152602001806020018473ffffffffffffffffffffffffffffffffffffffff1673ffffffffffffffffffffffffffffffffffffffff1681526020018381526020018281038252868682818152602001925060200280828437600081840152601f19601f8201169050808301925050509650505050505050604051602081830303815290604052907bffffffffffffffffffffffffffffffffffffffffffffffffffffffff19166020820180517bffffffffffffffffffffffffffffffffffffffffffffffffffffffff83818316178352505050506040518082805190602001908083835b602083106112355780518252602082019150602081019050602083039250611212565b6001836020036101000a038019825116818451168082178552505050505050905001915050600060405180830381855af49150503d8060008114611295576040519150601f19603f3d011682016040523d82523d6000602084013e61129a565b606091505b5091509150816112a657fe5b7f4cc17991e3610e3400e74a8306aa421daaee1e3446fa22b490604610999e10b38180602001905160208110156112dc57600080fd5b81019080805160405193929190846401000000008211156112fc57600080fd5b8382019150602082018581111561131257600080fd5b825186602082028301116401000000008211171561132f57600080fd5b8083526020830192505050908051906020019060200280838360005b8381101561136657808201518184015260208101905061134b565b505050509050016040525050506040518080602001828103825283818151815260200191508051906020019060200280838360005b838110156113b657808201518184015260208101905061139b565b505050509050019250505060405180910390a15050505050505050565b600060608873ffffffffffffffffffffffffffffffffffffffff16635d616c5b60e01b89898989898960405160240180878152602001868152602001806020018473ffffffffffffffffffffffffffffffffffffffff1673ffffffffffffffffffffffffffffffffffffffff1681526020018381526020018281038252868682818152602001925060200280828437600081840152601f19601f820116905080830192505050975050505050505050604051602081830303815290604052907bffffffffffffffffffffffffffffffffffffffffffffffffffffffff19166020820180517bffffffffffffffffffffffffffffffffffffffffffffffffffffffff83818316178352505050506040518082805190602001908083835b6020831061151257805182526020820191506020810190506020830392506114ef565b6001836020036101000a038019825116818451168082178552505050505050905001915050600060405180830381855af49150503d8060008114611572576040519150601f19603f3d011682016040523d82523d6000602084013e611577565b606091505b50915091508161158357fe5b7f4cc17991e3610e3400e74a8306aa421daaee1e3446fa22b490604610999e10b38180602001905160208110156115b957600080fd5b81019080805160405193929190846401000000008211156115d957600080fd5b838201915060208201858111156115ef57600080fd5b825186602082028301116401000000008211171561160c57600080fd5b8083526020830192505050908051906020019060200280838360005b83811015611643578082015181840152602081019050611628565b505050509050016040525050506040518080602001828103825283818151815260200191508051906020019060200280838360005b83811015611693578082015181840152602081019050611678565b505050509050019250505060405180910390a150505050505050505056fea2646970667358221220ff00ce3bd2881cb90a32b6302a1f112cbbde83036622e6f7fdb30e021cf9de5164736f6c63430006060033",
  "immutableReferences": {},
  "source": "pragma solidity =0.6.6;\r\n\r\nimport '../interfaces/IKhidirSwapRouter.sol';\r\n\r\ncontract RouterEventEmitter {\r\n    event Amounts(uint256[] amounts);\r\n\r\n    receive() external payable {}\r\n\r\n    function swapExactTokensForTokens(\r\n        address router,\r\n        uint256 amountIn,\r\n        uint256 amountOutMin,\r\n        address[] calldata path,\r\n        address to,\r\n        uint256 deadline\r\n    ) external {\r\n        (bool success, bytes memory returnData) = router.delegatecall(\r\n            abi.encodeWithSelector(\r\n                IKhidirSwapRouter(router).swapExactTokensForTokens.selector,\r\n                amountIn,\r\n                amountOutMin,\r\n                path,\r\n                to,\r\n                deadline\r\n            )\r\n        );\r\n        assert(success);\r\n        emit Amounts(abi.decode(returnData, (uint256[])));\r\n    }\r\n\r\n    function swapTokensForExactTokens(\r\n        address router,\r\n        uint256 amountOut,\r\n        uint256 amountInMax,\r\n        address[] calldata path,\r\n        address to,\r\n        uint256 deadline\r\n    ) external {\r\n        (bool success, bytes memory returnData) = router.delegatecall(\r\n            abi.encodeWithSelector(\r\n                IKhidirSwapRouter(router).swapTokensForExactTokens.selector,\r\n                amountOut,\r\n                amountInMax,\r\n                path,\r\n                to,\r\n                deadline\r\n            )\r\n        );\r\n        assert(success);\r\n        emit Amounts(abi.decode(returnData, (uint256[])));\r\n    }\r\n\r\n    function swapExactBNBForTokens(\r\n        address router,\r\n        uint256 amountOutMin,\r\n        address[] calldata path,\r\n        address to,\r\n        uint256 deadline\r\n    ) external payable {\r\n        (bool success, bytes memory returnData) = router.delegatecall(\r\n            abi.encodeWithSelector(\r\n                IKhidirSwapRouter(router).swapExactBNBForTokens.selector,\r\n                amountOutMin,\r\n                path,\r\n                to,\r\n                deadline\r\n            )\r\n        );\r\n        assert(success);\r\n        emit Amounts(abi.decode(returnData, (uint256[])));\r\n    }\r\n\r\n    function swapTokensForExactBNB(\r\n        address router,\r\n        uint256 amountOut,\r\n        uint256 amountInMax,\r\n        address[] calldata path,\r\n        address to,\r\n        uint256 deadline\r\n    ) external {\r\n        (bool success, bytes memory returnData) = router.delegatecall(\r\n            abi.encodeWithSelector(\r\n                IKhidirSwapRouter(router).swapTokensForExactBNB.selector,\r\n                amountOut,\r\n                amountInMax,\r\n                path,\r\n                to,\r\n                deadline\r\n            )\r\n        );\r\n        assert(success);\r\n        emit Amounts(abi.decode(returnData, (uint256[])));\r\n    }\r\n\r\n    function swapExactTokensForBNB(\r\n        address router,\r\n        uint256 amountIn,\r\n        uint256 amountOutMin,\r\n        address[] calldata path,\r\n        address to,\r\n        uint256 deadline\r\n    ) external {\r\n        (bool success, bytes memory returnData) = router.delegatecall(\r\n            abi.encodeWithSelector(\r\n                IKhidirSwapRouter(router).swapExactTokensForBNB.selector,\r\n                amountIn,\r\n                amountOutMin,\r\n                path,\r\n                to,\r\n                deadline\r\n            )\r\n        );\r\n        assert(success);\r\n        emit Amounts(abi.decode(returnData, (uint256[])));\r\n    }\r\n\r\n    function swapBNBForExactTokens(\r\n        address router,\r\n        uint256 amountOut,\r\n        address[] calldata path,\r\n        address to,\r\n        uint256 deadline\r\n    ) external payable {\r\n        (bool success, bytes memory returnData) = router.delegatecall(\r\n            abi.encodeWithSelector(\r\n                IKhidirSwapRouter(router).swapBNBForExactTokens.selector,\r\n                amountOut,\r\n                path,\r\n                to,\r\n                deadline\r\n            )\r\n        );\r\n        assert(success);\r\n        emit Amounts(abi.decode(returnData, (uint256[])));\r\n    }\r\n}\r\n",
  "sourcePath": "D:\\GITHUBKHIDIRSWAP2\\khidir-swap-periphery\\contracts\\test\\RouterEventEmitter.sol",
  "compiler": {
    "name": "solc",
    "version": "0.6.6+commit.6c089d02.Emscripten.clang"
  },
  "schemaVersion": "3.4.3",
  "updatedAt": "2021-09-10T04:00:56.505Z",
  "devdoc": {
    "methods": {}
  },
  "userdoc": {
    "methods": {}
  }
}